:020000040800F2
:1000000068060020050100083D3700088D2900081A
:10001000F5360008150C0008333C0008000000000D
:10002000000000000000000000000000C7370008CA
:100030004F0C000800000000C5370008ED3700082D
:100040001F0100081F0100081F0100081F01000810
:100050001F0100081F0100081F0100081F01000800
:100060001F0100081F0100081F010008190C0008EB
:100070001F0100081F0100081F0100081F010008E0
:100080001F0100081F0100081F0100081F010008D0
:100090001F0100081F0100081F010008510C000883
:1000A0001F0100081F0100081F0100081F010008B0
:1000B0006D3800081F0100081F0100081F0100081B
:1000C0001F0100081F0100081F0100081F01000890
:1000D0001F0100081F0100081F0100081F01000880
:1000E0001F0100081F0100081F010008DFF810D0E1
:1000F00000F08CFC00480047ED490008AFF3008099
:10010000680600200648804706480047FEE7FEE7ED
:10011000FEE7FEE7FEE7FEE7FEE7FEE7FEE7FEE7B7
:1001200069380008ED000008202A04DB203A21FA93
:1001300002F00021704721FA02F3D040C2F1200200
:100140009140084319467047D2B201E000F8012BF4
:10015000491EFBD270470022F6E710B513460A4647
:1001600004461946FFF7F0FF204610BDF0B480EAC0
:100170000102D40F4200B2EB410F02D20246084600
:1001800011464A0042D0C30DDDB2C1F3C752AD1AC9
:10019000202D35DAC1F3160141F4000204B15242B8
:1001A000C5F1200602FA06F12A411044B3EBD05FF4
:1001B00023D0C4B1012DA0EBC35009DCF0BC4FF03B
:1001C000004202EAC352DBB200F5000000F0F9BAC7
:1001D000400000F1807000EBC350A0F1807040EA55
:1001E000D170490009E0490841EAC071A0EBC35051
:1001F00000F50000400800EBC350F0BC00F0D8BA96
:100200006142012202EB4101001BF6E7F0BC70479E
:1002100081F00041AAE780F00040A7E780EA0102F0
:1002200010B502F00043400022D04A001FD0010E5A
:1002300001EB1261C0F35600C2F3560240F4000015
:1002400042F40002A0FB022000047F39140400D015
:10025000401C50EA124001D44000491EC2B20C06B4
:1002600004EBD010401C4008802A02D003E000209C
:1002700010BD20F00100002900DA0020184310BD55
:1002800030B480EA010202F0004530F0004221F073
:10029000004013D090B1C30DD40DC2F31601C0F3CA
:1002A0001600E41A41F4000140F400027D3491424A
:1002B00001D3641C00E04900002C02DA30BC0020AD
:1002C00070474FF400000023914201D3891A034381
:1002D00040084FEA4101F7D151B1914202D14FF0AC
:1002E000004105E002D24FF0010101E06FF0010191
:1002F00003EBC450284430BC00F05ABA2DE9FE4F3D
:10030000804681EA0300C00F0C46009021F00041B6
:1003100023F00045B8EB0200A94105D24046214632
:1003200090461C460B46024623F00040104347D03F
:10033000270DC7F30A00C3F30A510290401A019037
:1003400040286BDAC3F3130040F4801B00989246F8
:1003500020B10023D2EB030A63EB0B0B0198594643
:10036000C0F14002504600F002FA06460D465046E3
:100370005946019A00F00AFA10EB08006141002486
:1003800087EA115284EAE7731A4340D0009A62B3B5
:10039000019A012A4FEA075215DC001B61EB0201AA
:1003A0004FF0004202EA0752CDE90042001C41F53D
:1003B000801132462B4600F041FA03B0BDE8F08FC1
:1003C00040462146F9E7001B61EB0201001C41F5A4
:1003D000801300185B412018A2F5001747EB0301BA
:1003E00040EAD570B6196D4111E06D084FEA360646
:1003F00045EAC0754FEA0752001B61EB0201001C81
:1004000041F5801149084FEA300000195141324648
:100410002B4603B0BDE8F04F00F001BA009801226E
:1004200040000023D0EB020263EBE073009821460A
:100430004FEAE074B8EB000061EB0401E9E783F0F8
:1004400000435BE781F0004158E72DE9FE4F81EA68
:10045000030404F0004421F0004100944FF0000B2D
:1004600023F0004350EA01045ED052EA03045BD05B
:10047000C3F30A54C1F30A552C44A4F2F334019493
:10048000A0FB0254C1F3130141F48011C3F3130321
:1004900043F4801301FB024400FB034E840A970AD5
:1004A00044EA815447EA8357A4FB076802958D0A02
:1004B00005FB07854FEA932C04FB0C542705029D8E
:1004C0004FEA065847EA1637B5EB08056EEB070CFE
:1004D000870E920E47EA811742EA8312A7FB0201B8
:1004E000B6EB0B0164EB00042B0D43EA0C335E18F2
:1004F00044EB1C50DA465146E7FB0201C5F31304F6
:100500004FEA0B3343EA14534FEA0432019C43EAA7
:100510000603A4F10C040294009CCDE900B400F0A1
:100520008DF903B0BDE8F08F00200146F9E72DE911
:10053000F04D81EA030404F0004B21F0004514461D
:100540004FF0000A23F0004150EA050220D054EA9F
:1005500001021DD0C5F30A570246C5F31303C1F3C8
:100560001300C1F30A5640F4801543F48013A7EB3F
:100570000608101BD64608F2FD3873EB050002D3BF
:1005800008F1010801E092185B41B8F1000F03DAAD
:1005900000200146BDE8F08D00204FF48011064692
:1005A00084460EE0171B73EB050705D3121B63EBA4
:1005B000050306434CEA010C49084FEA3000921843
:1005C0005B4150EA0107EDD152EA030012D082EA02
:1005D000040083EA0501084305D0101BAB4106D295
:1005E0000122002306E000224FF0004302E06FF0FA
:1005F000010253101AEB06004CEB085110EB0A00F5
:1006000041EB0B01BDE8F04D00F009B9C10F80EAE4
:10061000E0700844CA079623002100F0D2B8962360
:100620000022114600F0CDB800F0004220F000405A
:10063000C10DC0F3160040F400007F2901DA00204C
:100640007047962903DCC1F19601C84001E0963954
:100650008840002AF4D04042704720F00040C10D8D
:10066000C0F3160040F400007F2901DA0020704733
:10067000962903DCC1F19601C8407047963988403D
:10068000704700F0004230F000400AD0C10D01F583
:100690006071C0F3160042EA0151C20840071143DD
:1006A000704700200146704701F0004330B421F04C
:1006B000004150EA010206D00A0DA2F56072C1F3B2
:1006C0001301002A02DC30BC00207047440F44EACA
:1006D000C104C100E01830BC00EBC25000F068B8A3
:1006E00030B50B46014600202022012409E021FA02
:1006F00002F59D4205D303FA02F5491B04FA02F5FF
:100700002844151EA2F10102F1DC30BD2DE9F05F95
:100710000546002092469B46884606468146402470
:100720001BE02846414647462246FFF7FDFC53465C
:100730005A46C01A914110D311461846224600F07D
:1007400016F82D1A67EB01084F46224601200021BA
:1007500000F00DF817EB00094E41201EA4F1010432
:10076000DFDC484631462A464346BDE8F09F202A52
:1007700004DB203A00FA02F1002070479140C2F1F8
:10078000200320FA03F3194390407047202A06DB28
:10079000CB17203A41FA02F043EAE07306E041FA4F
:1007A00002F3D040C2F1200291400843194670473D
:1007B0000029A8BF7047401C490008BF20F0010075
:1007C000704710B4B0FA80FC00FA0CF050EA010453
:1007D00004BF10BC704749B1CCF1200421FA04F4E5
:1007E00011FA0CF118BF012121430843A3EB0C01BE
:1007F000CB1D4FEA00614FEA102042BF002010BC21
:10080000704700EBC35010440029A4BF10BC7047D0
:10081000401C490008BF20F0010010BC704710B513
:10082000141E73F1000408DA401C41F10001921813
:100830005B411A4301D120F0010010BD2DE9F04DBC
:1008400092469B4611B1B1FA81F202E0B0FA80F211
:1008500020329046FFF78BFF04460F4640EA0A001D
:1008600041EA0B0153465A46084313D0114653EA56
:10087000010019D0C8F140025046FFF755FC05466B
:100880000E46504659464246FFF771FF084305D0D1
:10089000012004E020463946BDE8F08D00200543E4
:1008A00046EAE0762C4337430A986305E40AA0EB56
:1008B00008000022FD0A44EA47540A3002D500200D
:1008C0000146E9E7010510196941DDE9084500190C
:1008D0006941BDE8F04DA2E72DE9F04D00231A462D
:1008E0001B1A8A4103DB00200146BDE8F08DC1F3ED
:1008F0000A52C1F3130141F480154FF0000BD107E8
:1009000002D100186D41521E0027044640F2FF112B
:10091000384601EB620A3E468046024600204FF40C
:100920008011FFF701FCC2197141BB1846EB0100B1
:10093000B4EB030C75EB000C04D3E41A65EB000573
:1009400017460E46241908F101006D4180463428EF
:10095000E3DDF91946EB0600091BA84103D24FF06D
:10096000FF32134601E0002213461BEB070046EB63
:100970000A51BDE8F04DFFF752BFC1F30A52C1F36F
:10098000130140F2FF3341F480119A4202DA002051
:100990000146704740F233439A42A2F2334202DCEE
:1009A0005242FFF7C1BBFFF7E2BE000030B5041EA4
:1009B00071F1000404DB4FF00044404264EB01019C
:1009C000141E73F1000405DB1C464FF00043524235
:1009D00063EB04038B4208BF824230BD30B5041E76
:1009E00071F1000404DB4FF00044404264EB01016C
:1009F000141E73F1000405DB1C464FF00043524205
:100A000063EB0403994208BF904230BD064C074D8A
:100A100006E0E06840F0010394E8070098471034CE
:100A2000AC42F6D3FFF766FB004C0008204C0008F0
:100A300070B521F0004303430CD0C1F30A550024E4
:100A4000D5EB040564EB0403D617AD1AB34102DB02
:100A50000020014670BD201841EB025170BD00001E
:100A600070B50A46054609491046FFF709FC0446D9
:100A70002846FFF7D4FD0649FFF7D0FB0549FFF7ED
:100A8000FFFB2146BDE87040FFF7C8BB333353403E
:100A90000000344300F07F4570B50446006881686B
:100AA000C943C90717D1816821F00101816000F0B5
:100AB00043FD05460AE000BF00F03EFD401B022852
:100AC00004D920688068C043C00706D020688068C9
:100AD000C043C007F0D0002070BDA06A40F01000F5
:100AE000A062E06A40F00100E062012070BD10B534
:100AF0000146406A826A12F0500F05D0006A026B0C
:100B0000BDE8104008461047816A41F400718162D7
:100B100001688968C1F3424107290CD1017B51B9B1
:100B2000816A21F480718162816AC90403D4816A77
:100B300041F00101816200F07BF910BD10B5406AFF
:100B4000816A41F040018162C16A41F00401C162E1
:100B500000F070F910BD10B5406A00F06AF910BDE0
:100B6000F8B500260446009600688168C943C907A5
:100B70002DD0816841F00101816016481649006856
:100B8000B0FBF1F000E0401E00900028FBD100F027
:100B9000D3FC054616E000BF00F0CEFC401B022847
:100BA00010D920688068C043C0070BD0A06A40F00D
:100BB0001000A062E06A40F00100E06284F8246066
:100BC0000120F8BD20688068C043C007E4D1002040
:100BD000F8BD00007C00002040420F0010B50A491B
:100BE00010F1FF4F01D3002002E0884200DD0846EB
:100BF000FFF746FB0549FFF711FB0549FFF7B6FA7A
:100C0000FFF72BFD80B210BD000034430000FA4412
:100C10000000FA43FEE70000014800F067BA000058
:100C20004001002030B590F840500124AC40C56B25
:100C30006C60046863604368102B036803D099609C
:100C40000068C26030BD9A600068C16030BD704706
:100C5000802000F06FBB72B6FEE70000F8B50025FB
:100C60000446009590F8240001280BD0012084F858
:100C700024002046FFF710FF2046FFF771FF060013
:100C800002D050E00220F8BDA06A20F4885040F065
:100C90000200A062022000F0AFFF25490968B1FB05
:100CA000F0F0400000E0401E00900028FBD12068DA
:100CB000816841F00801816000F03EFC074608E0D1
:100CC00000F03AFCC01B0A2803D92068806800079E
:100CD00015D4206880680007F2D42068816841F04C
:100CE0000401816000F028FC074612E000F024FCBB
:100CF000C01B0A280DD920688068400709D5A06A62
:100D000020F0020040F01000A06284F8245001207E
:100D1000F8BD206880684007E8D4A06A20F002008F
:100D200040F00100A06284F824503046F8BD000075
:100D30007C000020F8B50024009490F8242025467B
:100D4000012A12D0012280F824204A681F23072A92
:100D50000DD20668776B521E02EB820293409F43CE
:100D60000B6893401F43776319E00220F8BD0668C3
:100D70000D2A0AD2376BD21F02EB820293409F43A7
:100D80000B6893401F43376309E0F76A0D3A02EBA3
:100D9000820293409F430B6893401F43F7620A68A7
:100DA000072306680A2A0AD3F7680A3A02EB4202C6
:100DB00093409F438B6893401F43F76008E0376977
:100DC00002EB420293409F438B6893401F4337617D
:100DD0000A68102A01D0112A20D1124B02689A42C7
:100DE00017D193681B0219D4936843F400039360EE
:100DF0000968102912D10C490C4A0968B1FBF2F1BB
:100E000001EB8101490000E0491E00910029FBD15E
:100E100004E0816A41F020018162012480F82450BD
:100E20002046F8BD002401407C00002040420F0015
:100E300070477047704700002DE9F0414FF0000700
:100E400004003D467ED0A06A002628B9E66284F8F8
:100E50002460204600F07EF82046FFF71DFEA16AC0
:100E6000C90600D420B1A06A40F01000A06269E079
:100E7000A16A21F4885141F00201A1626268E1692E
:100E8000237B0A4347EA43010A43A1684FF4807772
:100E9000B94209D0012907D05FF0000194F814C0CD
:100EA000BCF1010F02D00AE03946F7E7F3B1A36ABB
:100EB00043F02003A362E36A43F00103E362236883
:100EC000D3F804C02CF4694C4CEA010CC3F804C0FC
:100ED00021688B68DFF870C003EA0C0313438B6052
:100EE000A168B9420BD0012909D00CE0DFF85CC041
:100EF000A3690CEB43330B4343F40061DFE7218A22
:100F00000D05A5F580152168CB6A23F470032B43EA
:100F1000CB62216889680E4B1940914208D1E66284
:100F2000A16A21F0020141F00101A162BDE8F08156
:100F3000A06A20F0020040F01000A062E06A40F0D9
:100F40000100E0620120F1E7FDF7E1FF00E0FFFFB3
:100F5000FE0E1FFF70B586B0002506460095019570
:100F6000029503950068194988422DD1184988696E
:100F700040F400708861886900F40070049088690A
:100F800040F0080088618869694600F00800049014
:100F90000320009001900F4800F0D8F90F4C0E4844
:100FA000C4E900058020C4E90250400020618000AF
:100FB00060612020C4E90605204600F041F908B12F
:100FC000FFF749FE3462666206B070BD002401403E
:100FD00000100240000C01400800024040010020C7
:100FE0002DE9F047894604463B4900683B4F0E1DFA
:100FF0009046884201D0B84207D1306810F4702F73
:1010000003D001252846BDE8F08794F82400012884
:101010000CD0012084F824002046FFF7A1FD050034
:101020004FF0000004D084F82400EBE70220EAE748
:10103000A16A40F60162914341F48071A162216886
:10104000B94218D1326812F4702F14D0A16A41F459
:101050008011A1623168490505D5A16A21F40051CA
:1010600041F48051A162A16AC9040AD5E16A21F064
:101070000601E16206E0A26A22F48012A2624968D7
:10108000E9E7E06284F82400216A15488862216A51
:101090001448C862216A1448086321686FF002008E
:1010A00008602068816841F480718160216843464E
:1010B0004A464C31206A00F0F1F820688168C1F39B
:1010C00042410729816803D041F48011816099E78A
:1010D00041F4A001FAE7000000240140002801408B
:1010E000EF0A0008570B00083D0B00082DE9F05FE0
:1010F000C16B0C6801680B68D0F840C0042202FA8A
:101100000CF2494DDFF824A1494E4A4FDFF828B1CF
:10111000DFF828E122422CD05A072AD50A68920625
:1011200003D40A6822F004020A600168A94201D1CE
:10113000042219E0514501D1402215E0B14202D10B
:101140004FF4806210E0B94202D14FF480420BE0CC
:10115000594502D14FF4802206E0714502D14FF487
:10116000800201E04FF080622F4908394A60C16A6D
:101170003BE04FF0020808FA0CF818EA040F4FF0B1
:1011800000094FF0010235D05FEA837832D50B6851
:101190009B0605D40B6823F00A030B6080F821201E
:1011A0000168A94201D1022219E0514501D1202252
:1011B00015E0B14202D14FF4007210E0B94202D101
:1011C0004FF400520BE0594502D14FF4003206E0D3
:1011D000714502D14FF4001201E04FF00072124944
:1011E00008394A6080F82090816A00291AD0BDE849
:1011F000F05F0847082505FA0CF5254212D01B07B9
:1012000010D50B6823F00E030B6090F84010C36BF1
:1012100002FA01F15960826380F8212080F8209061
:10122000016BE2E7BDE8F09F080002401C000240AD
:101230003000024044000240580002406C0002406E
:1012400030B528B308C8134914221944B1FBF2F190
:101250008900C16310498163022141771A6843F60E
:10126000F0718A43D0E900142143D0E902452C43B0
:101270002143046921434469214384692143114383
:10128000196000214163012242770177084630BD91
:10129000012030BDF8FFFDBF0000024070B50446DC
:1012A00090F82000002501280CD0012084F82000AF
:1012B00094F821600020012E06D084F82000022539
:1012C000284670BD022070BD022684F82160A0630C
:1012D0002068066826F0010606602046FFF7A2FC9B
:1012E000E06A00282068016802D041F00E0106E0A3
:1012F00021F0040101602068016841F00A010160E9
:101300002068016841F001010160D9E770B5044629
:1013100000F012F90546601C02D00448007804442D
:1013200000F00AF9401BA042FAD370BD7000002003
:1013300002F0E2B9044910B50A68024202D008601E
:10134000FFF7F6FF10BD0000140401402DE9F84F2F
:10135000DFF8B8910024A9F1040B23460F2709F107
:10136000040AABF1040EC9E00125A5402A40AA42B7
:101370007DD1674ED1F804C0ACEB0608B44532D03D
:1013800014DCBCF1030F3AD009DCBCF1000F2AD009
:10139000BCF1010F1CD0BCF1020F31D11DE0BCF13A
:1013A000110F17D0BCF1120F2AD119E0B8F5881F20
:1013B00019D006DCB8F5803F15D0B8F5801F1FD1D5
:1013C00011E0B8F5001F0ED0B8F5041F18D10AE0DF
:1013D000CB6815E0CB681B1D12E0CB6808330FE02B
:1013E000CB680C330CE08B682BB1012B4FF008035A
:1013F00003D0456104E0042302E0056100E000231E
:10140000FF2A01D8064601E000F104064FEA8405F0
:1014100001D9A5F12005D6F8008007FA05FC28EAD5
:101420000C0803FA05F548EA0508C6F800804D687F
:10143000ED0062D5374DAE6946F00106AE61AD698B
:1014400024F0030605F001050095334D06EB050C6D
:10145000DCF80850A607360F07FA06F825EA080553
:10146000DFF8B880404503D14FF0000817E044E0B2
:10147000DFF8AC80404502D14FF001080FE0DFF803
:10148000A480404502D14FF0020808E0DFF89880C0
:10149000404502D14FF0030801E04FF0040808FA7C
:1014A00006F848EA0508CCF808804D68D9F80060CD
:1014B000ED024D4601D5164300E096432E604D687F
:1014C000DAF80060AD02554601D5164300E09643B8
:1014D0002E604D68DBF80060AD035D4601D5164314
:1014E00000E096432E604D68DEF80060ED0375461F
:1014F00001D5164300E096432E60641C0D682A4611
:10150000E5407FF431AFBDE8F88F000008040140EA
:1015100000001110001002400000014000080140CE
:10152000000C014000100140001401408068084098
:1015300000D001207047000001488068704700001B
:101540007000002070B5040025D094F83D000025FF
:1015500020B984F83C50204600F07EFA242084F81C
:101560003D002068016821F00101016020680168E8
:1015700041F4004101602068016821F400410160EC
:1015800000F098FC4D4A6168914201D84C4900E056
:101590004C49884201D2012070BD4B492368B0FB01
:1015A000F1F15E6826F03F060E435E606368934289
:1015B00006D94FF4967359434FF47A73B1FBF3F1A4
:1015C0002368491C1E6A26F03F0631431962616890
:1015D000914210D84900401EB0FBF1F2521CC2F3F8
:1015E0000B02042A01D2042022E0B0FBF1F0401CDF
:1015F000C0F30B001CE0A268F2B301EBC10303EBE4
:101600000116431EB3FBF6F35B1C43F480431B053A
:1016100049D092B301EBC10202EB0111401EB0FBB5
:10162000F1F0401CC0F30B0040F4804040F4004057
:101630002168CA694CF6FF739A431043C861D4E924
:10164000071001432068026822F0C00211430160C4
:10165000D4E9030101432068826848F2FF339A43CA
:1016600011438160D4E9050108432168CA6822F06A
:10167000FF021043C86001E00EE016E02068016838
:1016800041F0010101602564202084F83D002563BC
:1016900084F83E50002070BD01EB4106431EB3FBB1
:1016A000F6F35B1CB3E70120C2E701EB4101401EEA
:1016B000B0FBF1F0401CC0F30B00B7E7A0860100BF
:1016C00080841E0000093D0040420F002DE9FF4FBD
:1016D00083B00025DDE910799A4693460446DDF88B
:1016E00048800095FFF728FF064694F83D00202823
:1016F0007CD11923012288492046009601F05CFA2A
:101700000028F5D194F83C0001286FD0012084F81E
:101710003C0020680168C90703D1016841F001015C
:1017200001602068016821F400610160222084F8D2
:101730003D00402084F83E0025646762A4F82A90AA
:10174000608D20857548E062CDE9008653465A4693
:101750002046049901F032F900287CD1208DDFF871
:10176000C091202768B1012814D0022820680168A0
:101770001ED041F480610160206841698069009059
:10178000BCE02068416981690091016841F4007101
:101790000160B3E02068016821F48061016072B6E5
:1017A0002068416981690091016841F400710AE093
:1017B00041F40061016072B620684169816900915D
:1017C000016821F48061016062B697E0032865D862
:1017D00001280CD0022843464FF00002494620461B
:1017E00000960BD001F0E8F9A8BB0CE091E032467E
:1017F0004146204601F086FA68BB72E001F0DCF950
:1018000048BB72B633E02068016821F48061016052
:1018100072B620680069616A0870606A401C606284
:10182000208D401E2085608D401E60853D4846F21B
:10183000A8110068B0FBF1F0C0EBC00000EB800025
:101840000090401E009007D020684069C0434007C8
:101850000DD50098F5E727E044F8305F6773A5736E
:10186000206940F02000206162B625731CE02068EA
:10187000016841F40071016020680069616A0870C4
:10188000606A401C6062218D491E2185618D491E60
:10189000618562B621680969017026E032464146D9
:1018A000204601F02FFA18B1012007B0BDE8F08FF3
:1018B00020680069616A0870606A401C6062208D5F
:1018C000401E81B22185608D401E6085206842697E
:1018D000D243520712D4032903D1016821F4806155
:1018E000016020680069616A0870606A401C60627B
:1018F000208D401E2085608D401E6085208D002833
:101900007FF464AF84F83D7084F83E5084F83C5016
:10191000CBE70220C9E70000020010000000FFFF33
:10192000040001007C0000202DE9FF4F83B09A469F
:10193000DDE9119793460446DDF84080FFF7FCFD92
:10194000054694F83D0020287FD119230122404903
:101950002046009501F030F9002876D194F83C003B
:10196000012872D0012084F83C0020680168C90772
:1019700003D1016841F0010101602068016821F490
:1019800000610160212084F83D00402084F83E0081
:1019900000262664C4F82480A4F82A90608D20854F
:1019A0002C48E062CDE9007553465A46204604991A
:1019B00001F082F870B930E02A463946204601F03D
:1019C000D9F958B1206C042804D12068016841F489
:1019D00000710160012007B0BDE8F08F606A2168E6
:1019E00000780861606A401C6062218D491E89B2DE
:1019F0002185628D521E628522685369DB435B0735
:101A00000BD469B100781061606A401C6062208D5F
:101A1000401E2085608D401E6085208D0028CBD122
:101A20002A463946204601F09BF80028CAD154F8CE
:101A30003D0B016841F400710160202004F81E098B
:101A4000E67766770020C6E7FFE70220C3E70000DD
:101A5000020010000000FFFF10B586B000210091C9
:101A600001910291039100681349884222D1134CDD
:101A7000A06940F00800A061A069694600F0080074
:101A800004904FF4407000901220019003200390C6
:101A90000B48FFF75BFC0B48416841F0E06141F007
:101AA00002014160E06940F40010E061E06900F487
:101AB0000010049006B010BD005400400010024019
:101AC000000C014000000140024881680278114486
:101AD0008160704770000020074810B5016841F030
:101AE00010010160032000F075F80F2000F006F8E7
:101AF00000F024F8002010BD0020024070B50D4D0C
:101B000004464FF47A712878B1FBF0F00A4909686D
:101B1000B1FBF0F000F0A4FB48B9102C07D2002272
:101B20002146501E00F036F800206C6070BD012088
:101B300070BD0000700000207C0000200C4808B53B
:101B4000816941F001018161816901F00101009128
:101B5000C16941F08051C161C06900F080500090BE
:101B60000448416821F0E06141F00071416008BD26
:101B70000010024000000140002809DB00F01F02B5
:101B8000012191404009800000F1E020C0F80011DF
:101B900070470000F0B40E4B1B680C46C3F30223E1
:101BA000C3F10705042D00D90425191D072901D209
:101BB000002300E0DB1E012606FA05F1491E214044
:101BC00099409E40761E16403143F0BC02F056B854
:101BD0000CED00E0064900F0070208684FF6FF032D
:101BE000184040EA0220034A104308607047000092
:101BF0000CED00E00000FA0510B501460020234C72
:101C0000012922D0022939D010291DD1616822680A
:101C1000D20119D51E48C1F38342C903805C0AD59D
:101C200061681B4AC1F34041921E515C194AB2FBE4
:101C3000F1F1484301E0184948436168490203D47F
:101C400040000321B0FBF1F010BD226AC2F3012174
:101C5000012903D1920701D5C80310BD022905D17E
:101C6000626A920702D549F6404010BD0329FCD1B3
:101C700021688903F9D54FF2244010BD00F02AF9FC
:101C80006168C1F38131491C4900DBE70010024063
:101C9000344B000800127A0000093D002DE9F8439A
:101CA00005460078354CC00754D0E0690026C000D6
:101CB00008D4E06940F08050E061E069012600F05E
:101CC000805000902E480168C90512D401688046F2
:101CD00041F480710160FFF72FFC074605E000BF6B
:101CE000FFF72AFCC01B642823D8D8F80000C005E1
:101CF000F6D5206A10F4407021D0A98801F4407113
:101D000081421CD0206A1F49012220F440700A60E1
:101D100000220A602062C00711D0FFF70DFC0746C1
:101D200041F2883808E000BFFFF706FCC11B4145BF
:101D300002D90320BDE8F883206A8007F4D5206A21
:101D4000696820F44070084320621EB1E06920F009
:101D50008050E0612878800705D56068A96820F484
:101D60004040084360602878C00605D56068E9688F
:101D700020F48000084360600020DBE70010024090
:101D800000700040400442422DE9F0470F46050034
:101D900061D0434E306800F00700B84209D2306885
:101DA00020F0070038433060306800F00700B84288
:101DB00051D128683B4C810712D5400703D5606894
:101DC00040F4E06060602878000703D5606840F464
:101DD000605060606068A96820F0F00008436060AF
:101DE0002878C00728D06868012810D02168022808
:101DF00010D0890700292EDA616821F00301014320
:101E00006160FFF799FB804641F288390DE0216857
:101E10008903EFE78901EDE7FFF78EFBA0EB0801EF
:101E2000494502D90320BDE8F0876068696800F081
:101E30000C00B0EB810FEFD1306800F00700B84222
:101E40000BD9306820F0070038433060306800F06C
:101E50000700B84201D00120E5E72878400705D502
:101E60006068E96820F4E060084360602878000753
:101E700006D56068296920F4605040EAC1006060BE
:101E800000F038F86168084AC1F30311515CC8409A
:101E90000649086006480068FFF730FE0020C2E7E8
:101EA0000020024000100240444B00087C0000204B
:101EB000740000200448054900684968044AC1F3D9
:101EC0000221515CC84070477C0000200010024095
:101ED000544B00080448054900684968044AC1F3A6
:101EE000C221515CC84070477C00002000100240B5
:101EF000544B00080E4A51680E4801F00C03042BA5
:101F000011D0082B0FD10C48C1F38343C903C05C27
:101F10000AD55168084AC1F34041921E515C054AF6
:101F20005043B0FBF1F0704704494843704700004C
:101F30000010024000127A00224B000800093D0008
:101F40002DE9F84F040070D02078C04DC00749D06B
:101F50006868C0F38100012807D06868C0F3810079
:101F6000022809D16868C00306D52868800339D5DE
:101F700060680028E7D035E06068B0F5803F0BD09E
:101F800010B1B0F5A02F11D0286820F4803028605F
:101F9000286820F4802002E0286840F4803028601F
:101FA000606890B1FFF7C8FA06460AE0286840F476
:101FB00080202860F0E700BFFFF7BEFA801B64288E
:101FC00073D828688003F7D50CE0FFF7B5FA06460A
:101FD00005E000BFFFF7B0FA801B6428F0D828683E
:101FE0008003F7D420789A4E80074FF001094FF014
:101FF000000839D5686810F00C0F07D06868C0F386
:102000008100022809D16868C00306D428688007C7
:1020100014D52069012808D110E02069B0B1C6F8B4
:102020000090FFF789FA074605E00AE1FFF784FA16
:10203000C01B0228C4D828688007F7D528686169C2
:1020400020F0F80040EAC10028600DE0C6F80080EA
:10205000FFF772FA074604E0FFF76EFAC01B02288A
:1020600023D828688007F7D4207800072CD5794832
:10207000A169D9B1C0F80090FFF75EFA074604E005
:10208000FFF75AFAC01B02280FD8686A8007F7D5F5
:1020900071484FF4FA510068B0FBF1F0009000BFB6
:1020A0000098411E0091FAD20EE080E0C0F8008056
:1020B000FFF742FA074604E0FFF73EFAC01B02288A
:1020C00075D8686A8007F7D42078400760D5E8693A
:1020D0000027C00008D4E86940F08050E861E86952
:1020E000012700F0805000905C480168C90513D4B6
:1020F0000168834641F480710160FFF71DFA824652
:1021000006E000BFFFF718FAA0EB0A0064284ED8DB
:10211000DBF80000C005F5D5E06801280AD008B159
:10212000052813D0286A20F001002862286A20F0D0
:10213000040002E0286A40F001002862E06841F2F1
:10214000883B98B1FFF7F8F982460BE0286A40F027
:1021500004002862EEE700BFFFF7EEF9A0EB0A01EA
:1021600059455AD8286A8007F6D50CE0FFF7E4F9FC
:10217000824605E0FFF7E0F9A0EB0A0159454CD88B
:10218000286A8007F6D41FB1E86920F08050E86122
:10219000E06988B36968C1F38101022944D002284B
:1021A000C6F8608004D0FFF7C7F9044638E034E091
:1021B000FFF7C2F9074604E0FFF7BEF9C01B02288B
:1021C0002BD828688001F7D4206AB0F5803F05D16C
:1021D0006868A16820F4003008436860D4E9080109
:1021E0000843696821F4741108436860C6F8609078
:1021F000FFF7A2F9044606E025E000BFFFF79CF9CF
:10220000001B022809D828688001F7D51BE000BF11
:10221000FFF792F9001B022802D90320BDE8F88FCE
:1022200028688001F4D40EE00128F7D06868226A9B
:1022300000F48031914204D1616A00F47010884248
:1022400001D00120EAE70020E8E70000001002408A
:1022500000004242800442427C00002000700040A6
:1022600010B5401EB0F1807F01D3012010BD4FF0AA
:10227000E02460610F21601701F000FD0020A061E3
:1022800007202061002010BD7047704770B590F89E
:102290003C20012A26D0012480F83C40022280F80C
:1022A0003D2003685A689D6822F070060A68324330
:1022B0005A600D4B02689A4208D0B2F1804F05D0A7
:1022C0000A4B9A4202D00A4B9A4204D1496825F03F
:1022D00080031943916080F83D40002180F83C1054
:1022E000084670BD022070BD002C01400004004073
:1022F0000008004010B5040003D094F83D0010B170
:1023000007E0012010BD002084F83C00204600F0CA
:102310001FF8022084F83D00211D206801F0ACFA6E
:10232000012084F8460084F83E0084F83F0084F8D9
:10233000400084F8410084F8420084F8430084F8A7
:10234000440084F8450084F83D00002010BD0000E2
:1023500008B50068B0F1804F12D10A48C16941F058
:102360000101C161C069002200F001000090114626
:102370001C20FFF70FFCBDE808401C20FFF7FCBB4A
:1023800008BD00000010024090F83D10012901D066
:1023900001207047022180F83D100168CA6842F0B0
:1023A0000102CA6000680B49884208D0B0F1804F32
:1023B00005D00949884202D00849884204D1816881
:1023C00001F00701062903D0016841F00101016015
:1023D00000207047002C014000040040000800402D
:1023E00070B5044690F83C000025012817D001265E
:1023F00084F83C60022084F83D002068826822F066
:10240000770222F47F4282600868502838D00DDCC1
:1024100020284FD005DC90B3102811D14AE00220CB
:1024200070BD302846D040280AD13BE060282FD02C
:1024300070280DD0B0F5805F03D0B0F5005F12D0EA
:10244000012584F83D60002084F83C00284670BDDA
:10245000CB68D1E90121206801F057FA2068816832
:1024600041F0770109E0CB68D1E90121206801F052
:102470004CFA2068816841F480418160E1E719E00D
:10248000CA684968206801F0F5FA5021206806E022
:10249000CA684968206801F0FEFA6021206801F0EE
:1024A0003EFACEE7CA684968206801F0E3FA4021A5
:1024B0002068F4E7226801461046F0E770472DE9EE
:1024C000F04104460068C66805694FF00007A90797
:1024D00013D5B10711D5F91E0161012020772068BD
:1024E00080698007204602D0FFF7E8FF04E000F093
:1024F000A3F8204600F035F92777680716D570074E
:1025000014D521686FF0040008610220207720684C
:10251000806910F4407F204602D0FFF7CFFF04E02F
:1025200000F08AF8204600F01CF92777280715D517
:10253000300713D521686FF0080008610420207768
:102540002068C0698007204602D0FFF7B7FF04E08B
:1025500000F072F8204600F004F92777E80616D557
:10256000F00614D521686FF010000861082020776C
:102570002068C06910F4407F204602D0FFF79EFF1C
:1025800004E000F059F8204600F0EBF82777E80760
:1025900008D0F00706D021686FF0010008612046DE
:1025A00000F02EF9280608D5300606D521686FF010
:1025B000800008612046FFF767FE680608D57006B0
:1025C00006D521686FF040000861204600F022F92E
:1025D000A8060AD5B00608D521686FF0200008616A
:1025E0002046BDE8F041FFF750BEBDE8F081000095
:1025F00000B585B00021009101910291039100681E
:10260000B0F1804F11D10A48816941F00401816124
:102610008069694600F004000490032000900220C5
:10262000019003900348FEF791FE05B000BD000045
:102630000010024000080140704770B5044690F851
:102640003C0000260D4601280FD0012084F83C00F4
:102650006AB1042A1DD0082A2FD00C2A3FD00126A7
:10266000002084F83C00304670BD022070BD206818
:1026700001F05EF92068816941F0080181612068FC
:10268000816921F004018161206881692A6911430F
:1026900011E0206801F074F92068816941F400615B
:1026A00081612068816921F480618161206881698C
:1026B0002A6941EA02218161D2E7206801F08CF9A0
:1026C0002068C16941F00801C1612068C16921F039
:1026D0000401C1612068C1692A69114311E02068C1
:1026E00001F0A6F92068C16941F40061C161206868
:1026F000C16921F48061C1612068C1692A6941EA28
:102700000221C161ACE710B5040003D094F83D008C
:1027100010B107E0012010BD002084F83C002046E5
:1027200000F01EF8022084F83D00211D206801F011
:10273000A3F8012084F8460084F83E0084F83F00A6
:1027400084F8400084F8410084F8420084F8430093
:1027500084F8440084F8450084F83D00002010BD52
:102760007047704710B50446022249B104290ED0C3
:10277000082913D094F84100012816D0012010BD7B
:1027800094F83E000128F9D184F83E200FE094F837
:102790003F000128F2D184F83F2008E094F840007F
:1027A0000128EBD184F8402001E084F84120012287
:1027B000206801F09DF80F492068884203D1426CDF
:1027C00042F4004242642068884208D0B0F1804F51
:1027D00005D00949884202D00849884204D181685D
:1027E00001F00701062903D0016841F001010160F1
:1027F000002010BD002C01400004004000080040F3
:102800000068B0F1804F02D1014800F055BB70471D
:10281000E0000020704770B5040004D094F8410037
:10282000002510B106E0012070BD84F8405020461C
:1028300000F024F8242084F841002068C16821F4C5
:102840000051C160204601F05FF92068016921F460
:10285000904101612068416921F02A0141612068AD
:10286000C16841F40051C1606564202084F84100D2
:1028700084F842006563002070BD000030B585B06B
:10288000002400940194029403940068144988423F
:1028900024D11448816941F480418161816901F446
:1028A00080410491816941F00401816180690E4D8C
:1028B00000F0040004904FF400700090022001909A
:1028C0000320039069462846FEF740FD2815CDE910
:1028D0000004694628460294FEF738FD05B030BD75
:1028E0000038014000100240000801402DE9F84383
:1028F000044690F84100984616460D46202802D01E
:102900000220BDE8F88385B17EB1002060642120FB
:1029100084F84100FEF710FEA6848146E684A06894
:102920002027B0F5805F02D003E00120E9E72069AD
:1029300010B12E4600250EE000260CE08021204636
:1029400001F03EF9A8B9C6B116F8010B216848603C
:10295000E08C401EE084E08C4B464FF00002CDF846
:1029600000800028EAD14FF04001204601F028F90C
:1029700040B184F841700320C3E735F8020BC0F37F
:102980000800E3E784F841700020BAE7FEE7016839
:102990004A69D24352050FD46FF480624A61002124
:1029A00040F8301F202242738173026942F0040212
:1029B0000261017301207047002070472DE9F84F34
:1029C0000446006889460B9D01689846174641F405
:1029D000806101602068016841F4807101600095A8
:1029E0004FF0011B0022594620460A9B00F0E4F8F4
:1029F0004FF4007A40B120680068C00501D5C4F8E2
:102A000040A00320BDE8F88F216809F0FE000861AE
:102A10002B46284920460A9A00F016F9F0BB206898
:102A20004169806900902A4620460A9900F0A2F97F
:102A300040B1206C04283AD12068016841F400714B
:102A4000016034E0FEB2B8F1010F09D02168380A04
:102A500008612A4620460A9900F08CF90028E8D13E
:102A6000206806612A4620460A9900F083F900286A
:102A7000DFD12068016841F4807101600095002277
:102A8000594620460A9B00F097F80028B3D12168E8
:102A900009F0FF0040F00100086100E007E02B466C
:102AA000044920460A9A00F0CFF80028AAD0012055
:102AB000A8E70000020001002DE9F8430446006881
:102AC0000D46DDE9089701689846164641F4807185
:102AD00001604B4600224FF001112046009700F0A4
:102AE0006BF848B120680068C00502D54FF400704B
:102AF00020640320BDE8F883216805F0FE0008612A
:102B00003B464A461549204600F09EF888B92068A1
:102B10004169806900903A464946204600F02AF90A
:102B200048B1206C042804D12068016841F4007188
:102B300001600120DEE7F5B2B8F1010F09D021688C
:102B4000300A08613A464946204600F013F9002849
:102B5000E7D1206805610020CCE7000002000100F9
:102B600070B516460D4604461EE02046FFF70FFFDF
:102B700008B1012070BD681C16D0FEF7DDFC801B7B
:102B8000A84200D885B920684069C04340070BD5EA
:102B9000002044F8300F20216173A073216941F0B7
:102BA000200121612073E4E720684069C0434007A9
:102BB000DBD4002070BD00002DE9F0479846174691
:102BC0000D460446C1F30746DDF820902AE000BF19
:102BD000B8F1FF3F26D0FEF7AFFCA0EB090141455D
:102BE00002D8B8F1000F1DD12068012E16D08069DF
:102BF00025EA00000004000C12D00020B84211D1D8
:102C0000002044F8300F20216173A073216941F046
:102C10002001216120730120BDE8F0874069E7E7CA
:102C20000120EBE72068012E0AD0806925EA000028
:102C30000004000C06D00020B842C9D00020EBE709
:102C40004069F3E70120F7E72DE9F047984616467B
:102C50000D4604464FF000094FF0200AC1F3074724
:102C600023E020684069C043400515D4206801680E
:102C700041F40071016021686FF480604861C4F81C
:102C8000309084F83DA084F83E90216C41F004011E
:102C9000216484F83C9021E0701C06D0FEF74CFCC7
:102CA000A0EB0800B04203D816B1012F1FD021E0DD
:102CB0002068012F15D0806925EA00000004000C6F
:102CC00018D000BF44F8309F84F80DA084F80E900F
:102CD000216941F02001216184F80C900120BDE8B8
:102CE000F087406925EA00000004000CEAD1206862
:102CF000406901E02068806925EA00000004000CBA
:102D0000AFD1ECE72DE9F041002590460E46044690
:102D1000202728E04069C043C0060CD454F8301B7B
:102D20006FF01000486144F810596777A577206A62
:102D30002062257714E0FEF7FFFBA0EB0800B0420D
:102D400000D886B920684069C04340060BD544F8D6
:102D5000305F6773A573206940F020002061257300
:102D60000120BDE8F08120684169C9434906D1D4FA
:102D70000020F6E770B516460D4604461EE02046D4
:102D8000FFF705FE08B1012070BD681C16D0FEF7E4
:102D9000D3FB801BA84200D885B920684069C04396
:102DA00000060BD5002044F8300F20216173A0737A
:102DB000216941F0200121612073E4E72068406926
:102DC000C0430006DBD4002070BD00002DE9FF41A8
:102DD000044680880E46642807D9FDF720FC01468A
:102DE0001848FDF74DFA074600E0174F258864881C
:102DF000A5F26B714FF495724FF40060914200D8C8
:102E00000546A4F26B71914200D80446394620462B
:102E1000FDF726FE306039462846FDF721FE70603A
:102E2000FDF72FFC074688463068FDF72AFC02466E
:102E30000B468DE88C012246294604A000F0FAFEDC
:102E4000BDE8FF81009099453333534025752C250B
:102E5000752C252E32662C252E32660A00000000C5
:102E60002DE9FF410F4C0546206900F011FB286059
:102E7000A06900F00DFB68602069FDF702FC0746C1
:102E80008846A069FDF7FDFB05460E466069FDF723
:102E9000F8FB8DE8E00102460B4603A000F0CAFEF5
:102EA000BDE8FF81E0000020252E33662C252E335F
:102EB000662C252E33660A002DE9F04F8FB00446AC
:102EC00000F0E0F8B4F90000FDF7A0FB654D696D76
:102ED0000E46FDF7A3F90B90B4F90200FDF796FB3F
:102EE0003146FDF79BF90690B4F90400FDF78EFB1F
:102EF0003146FDF793F98346B4F90600FDF786FBEA
:102F0000296D0E46FDF78AF9E96C0F46FDF786F943
:102F10008146B4F90800FDF779FB3146FDF77EF9EB
:102F20003946FDF77BF98046B4F90A00FDF76EFBE0
:102F30003146FDF773F93946FDF770F959460A90A5
:102F40000846FDF76BF9069907460846FDF766F94E
:102F50000B9906460846FDF761F93146FDF706F97B
:102F60003946FDF703F9FDF78CFB01F0B3FDFDF7E2
:102F70009BFB3D49884201DB3C4F00E03C4F414612
:102F8000E869FDF7F3F80646E8614946286AFDF767
:102F9000EDF8286239464FF07E50FDF739F9314699
:102FA0000C90FDF73BF9FDF76CFB81468A465846CD
:102FB000FDF767FB0646884603910698FDF761FB1F
:102FC0004346324601F038FC834688463846FDF7D2
:102FD00058FB07465A4643460191FDF736FA4FF033
:102FE0008042244BFDF7A3FADFF88CB000225B4649
:102FF000FDF72BFA4A465346FDF780F9FDF754FBDF
:1030000060610C98296AFDF709F9FDF73AFB8046E3
:103010008946039D0B98FDF734FB32462B4601F0A1
:103020000BFC02460B4638460199FDF70EFA4FF0AD
:103030008042124BFDF77BFA00225B46FDF705FA52
:1030400042464B46FDF7FBF9FDF72EFBA0610C490C
:103050000A98FDF7E3F82169FDF788F820610FB0C1
:10306000BDE8F08F000000209A99993FCDCC4C3FED
:1030700048E17A3FFB21094000806640FB2109C0FE
:10308000E62E654270B50446364A0E213B2001F01B
:10309000FFFC3448344B018849BA09B22180428888
:1030A00052BA6280828852BAA280C28852BAA28181
:1030B000028955BAE580428952BA22815E888089A8
:1030C000AD1BE5809D8840BA521B2281DA88801AA8
:1030D00060810846FDF79AFA01462248103000F058
:1030E0002EFBFDF7A1FA2080B4F90200FDF78EFA5D
:1030F00001461C481C3000F022FBFDF795FA608069
:10310000B4F90400FDF782FA01461648283000F0B1
:1031100016FBFDF789FAA080B4F90600FDF776FAF0
:1031200001461048343000F00AFBFDF77DFAE080DC
:10313000B4F90800FDF76AFA01460A48403000F089
:10314000FEFAFDF771FA2081B4F90A00FDF75EFA84
:10315000014604484C3000F0F2FAFDF765FA608150
:1031600070BD000088000020000000202DE9F04123
:103170000446007930B1082807D0102808D0182854
:103180000BD108E04FF08D4107E04FF08C4104E097
:103190004FF08B4101E04FF08A41E07830B10828D0
:1031A00006D0102806D0182807D105E0314D04E0DC
:1031B000314D02E0314D00E0314D4FF07E5630464A
:1031C000FDF75EF82F4F294678652F48FDF758F830
:1031D000386580216B2001F06BFC6420FEF796F8C7
:1031E00000216B2001F064FC20884FF47A71884242
:1031F00001D3218003E0042801D20420208020880C
:10320000FDF70DFA01462148FDF73AF83146FCF783
:10321000FFFFFDF722FAC1B2192001F049FC00219D
:10322000372001F045FCA179382001F041FCA1785C
:103230001A2001F03DFCE1781B2001F039FC2179D6
:103240001C2001F035FC6179232001F031FC60790C
:10325000002100B14021A079C00701D141F008014F
:103260006A2001F025FCBDE8F04101216B2001F04E
:103270001FBC0000000003430000834233330342BD
:10328000333383410000002039FA8E3C00007A4439
:103290002DE9FC47002605463746B0463446DFF8A0
:1032A00024A1DFF8249127E06A460621432001F09B
:1032B000EFFB9DF800009DF80110000200B20843EA
:1032C0009DF802109DF80320090209B211439DF8F0
:1032D00004209DF80530120212B21A4306440F442E
:1032E00090445146D9F84C00FCF798FFFDF7B5F92A
:1032F000FEF70CF8641CA4B2AC42D5D396FBF5F1F2
:10330000A9F8021097FBF5F1A9F8041098FBF5F164
:1033100000242546A9F806102E462746C8466A46C8
:103320000621432001F0B4FB9DF80000B8F802C06C
:1033300001029DF8010001439DF80200A1EB0C0180
:1033400002029DF80300B8F804C002439DF804008F
:10335000A2EB0C0203029DF80500B8F806C0034377
:1033600009B2A3EB0C0312B21BB20C4415441E4469
:103370005146D8F84C00FCF751FFFDF76EF9FDF708
:10338000C5FF7F1CBFB2642FC9D3642194FBF1F049
:10339000002800DA4042022811DB95FBF1F00028FA
:1033A00000DA404202280ADB96FBF1F0002800DA3E
:1033B0004042022803DB4FF0FF30BDE8FC870020CD
:1033C000FBE7000000007A44000000201CB52C4CF4
:1033D000E0603220ADF8000004208DF802001820D3
:1033E0008DF8030008208DF8040000208DF80500FA
:1033F00001208DF806006846FFF7B8FEBDF8000012
:10340000FDF70DF901464FF07E50FCF739FFE064FF
:103410004FF49670FDF77AFF00244020FFF738FF45
:1034200010B1641C032CF8DB164CBDF800202146BB
:10343000154800F0B1F91448BDF8002021460C30C1
:1034400000F0AAF91048BDF800202146183000F01D
:10345000A3F90E4C0C48BDF800202146243000F0A2
:103460009BF90948BDF800202146303000F094F95E
:103470000548BDF8002021463C3000F08DF91CBD08
:103480000000002000004042980000200000B042F0
:1034900010B50649FCF7BFFE0549064A884201DA25
:1034A000084610BD9042FCDD104610BD0000B4423D
:1034B0000000204100002A433EB500211D48009134
:1034C00001911B4A029102609215826001240473EB
:1034D000017503254FF460220561C2614160FDF76B
:1034E000ABFC08B1FDF7B7FB0820CDE900040620CE
:1034F000029069460F48FDF71DFC08B1FDF7ABFBD4
:10350000092000900220019069460A48FDF712FC4C
:1035100008B1FDF7A0FB1120CDE90005694605487B
:10352000FDF708FC002801D0FDF795FB3EBD00002B
:103530000024014010010020094808B5416941F00C
:10354000010141614069002200F001000090114634
:103550000B20FEF71FFBBDE808400B20FEF70CBB5D
:103560000010024000B585B0002003901648816924
:1035700041F020018161816901F02001049181699C
:1035800041F004018161816901F0040104918169C4
:1035900041F0080181618069694600F008000490EB
:1035A0008020009009480190012002900848FDF712
:1035B000CDFE002211461720FEF7ECFA1720FEF789
:1035C000DBFA05B000BD0000001002400000211031
:1035D000000801400D4810B50B4901600C494160DD
:1035E00000214FF480428160C0E903124161816192
:1035F000C1610162FDF7A6FF002803D0BDE81040BD
:10360000FDF729BB10BD00000054004084010020DC
:10361000801A060010B58EB000240794089409940F
:103620000A940B941C2168460C94FCF794FD2248E4
:103630004FF0804101604721C0E9011444F61F6149
:10364000C0E903148461FEF755FE08B1FDF703FBE2
:103650004FF48050079007A91748FEF7C1FE08B144
:10366000FDF7F9FA1448FFF74EF808B1FDF7F3FA41
:103670000B940BA910480C94FEF708FE08B1FDF757
:10368000EAFA6020CDE900040294002269460A4863
:103690000494FEF7D2FF08B1FDF7DDFA0422694673
:1036A0000548FEF7CAFF08B1FDF7D5FA0248FEF754
:1036B0009FFF0EB010BD0000D80100200C4810B5CF
:1036C0000A4901604FF4E1314160002181600C2220
:1036D000C160C0E904128161C161FFF79CF8002854
:1036E00003D0BDE81040FDF7B6BA10BD0038014068
:1036F00020020020FEE7000010B5802814D1FDF75D
:103700001BFF0B4C2168401AFA280DD9802109486B
:10371000FDF70CFF002807D10748016829B10021F7
:103720000160FDF709FF206010BD0121F8E70000EE
:103730006C0000200008014058000020FEE72DE941
:10374000F041876805688846044639462846FCF7F4
:103750000DFD064629466068FCF760FD05463946C2
:103760004046FCF75BFD2946FCF700FD3146FCF7BF
:1037700087FD6060BDE8F08110B504460160104629
:10378000FCF74DFF01464FF07E50FCF779FDA0603D
:103790000020606010BD000070B514460A46054662
:1037A00007491046FCF73AFD01464FF07E50FCF702
:1037B00067FD014622462846BDE87040FFF7DCBFA2
:1037C000DB0FC9407047704770B504460068FDF7CD
:1037D00005FA05466068FDF701FA034A01461068DC
:1037E00045631068816370BDD8010020FEF76CB995
:1037F00030B593B028216846FCF7ADFC14210AA827
:10380000FCF7A9FC002501200F95109511950104E6
:1038100012958DE8230004904FF4E010CDE90810D4
:10382000022407946846FEF78BFB08B172B6FEE7E8
:103830000AA90F2081E831004FF48060CDE90D0521
:1038400002210AA8FEF7A0FA08B172B6FEE74FF40B
:10385000004011900F940FA8FEF720FA002801D025
:1038600072B6FEE713B030BD704700000148FEF7A6
:1038700026BE0000D8010020F0B50268194B1A4C92
:103880001A4D4FF08047984205D0B84203D0A0426D
:1038900001D0A84203D122F070064A683243984210
:1038A00005D0B84203D0A04201D0A84203D122F4EF
:1038B0004074CA6822434C6922F0800222430260AD
:1038C0008A68C2620A688262984201D1096901630A
:1038D000012141610169C90703D0016921F001019A
:1038E0000161F0BD002C01400004004000080040D0
:1038F00010B501F01F030121046A99408C43046252
:10390000016A9A401143016210BD10B5846842EA11
:10391000032224F47F440A432243826010BD82685C
:1039200022F070020A4342F00701816070470000F4
:1039300030B5036A026A22F00102026242688469B9
:1039400024F073050C682C4323F002058B682B438D
:103950000A4DA8420BD123F00805CB6822F440722F
:103960002B434D6923F0040315438A692A434260BF
:10397000846149684163036230BD0000002C01404E
:1039800030B5026A036A23F0100303624368846956
:103990000D6824F4E64444EA05248D6822F02002F0
:1039A00042EA05120B4DA8420ED1CD6822F08002EA
:1039B00042EA05124D6923F4406343EA85038D69A9
:1039C00022F0400243EA85034360846149688163D1
:1039D000026230BD002C014030B5036A026A22F455
:1039E000807202624268C46923F4007324F0730594
:1039F0000C682C438D6843EA05230C4DA8420ED178
:103A0000CD6823F4006343EA05234D6922F4405254
:103A100042EA05128D6923F4806342EA051242608E
:103A2000C4614968C163036230BD0000002C0140DD
:103A300030B5046A026A22F4805202624268C369A5
:103A40000D6823F4E64343EA05238D6824F400540B
:103A500044EA0534064DA84204D14D6922F480425F
:103A600042EA85124260C36149680164046230BD64
:103A7000002C014010B5036A046A24F001040462BA
:103A8000846924F0F00444EA021423F00A020A4391
:103A90008461026210BD10B5036A046A24F0100448
:103AA0000462846923F0A00324F4704444EA0232DF
:103AB00043EA01118261016210BD01680C3151E8D5
:103AC000002F22F4907241E80023002BF5D1016809
:103AD000143151E8002F22F0010241E80023002BAD
:103AE000F5D1016B012909D101680C3151E8002F92
:103AF00022F0100241E80023002BF5D1202180F8AC
:103B0000421000210163704770B5044600680169E6
:103B1000E26821F44051114301612169A068084322
:103B2000616908432168CA6841F20C639A43024301
:103B3000CA6020684169A26921F440711143416162
:103B40001E492068884202D1FEF7C4F901E0FEF761
:103B5000B1F900EBC00101EB001260686421800044
:103B6000B2FBF0F3B3FBF1F36FF018067343B2FB53
:103B7000F0F5B2FBF0F605EB8305322303EB0515F8
:103B8000B5FBF1F5B6FBF1F605F0F00505EB061512
:103B9000B2FBF0F6B2FBF0F0B0FBF1F06FF0180200
:103BA000504306EB800003EB0010B0FBF1F02168FE
:103BB00000F00F002844886070BD0000003801400C
:103BC0002DE9F843984617460D460446089E24E022
:103BD000701C22D0FDF7B0FCA0EB0800B0421AD850
:103BE000CEB12068C168490717D5802D15D0402D6A
:103BF00013D00168C94309070FD401680025406844
:103C000000902046FFF759FF0820606484F8405078
:103C10000120BDE8F8830320FBE72068006835EA4F
:103C2000000004D00020B842D2D00020F1E70120EB
:103C3000F9E7FEE70FB4054B10B503A9044A029853
:103C400000F066F910BC5DF814FB0000D5490008CF
:103C500080000020490050EAC12018BF04204A0D0E
:103C600018BF40F0010040F2FF72B2EB515F08BF95
:103C700040F00200012808BF052070470907090E1F
:103C8000002804DB00F1E02080F80014704700F009
:103C90000F0000F1E02080F8141D70472DE9F0417D
:103CA0004F1E00EBC7010446D1E9000115461E4630
:103CB00037F006020DD02A463346FCF7C6FB7F1EBE
:103CC00004EBC703D3E90023FCF718FB37F0060227
:103CD000F1D1022F25D0042F13D0062F18BFBDE835
:103CE000F0812A463346FCF7B0FBD4E90A23FCF7FF
:103CF00005FB2A463346FCF7A8FBD4E90823FCF76A
:103D0000FDFA2A463346FCF7A0FBD4E90623FCF76C
:103D1000F5FA2A463346FCF798FBD4E90423FCF76E
:103D2000EDFA2A463346FCF790FBD4E90223FCF770
:103D3000E5FA2A463346FCF788FBD4E90023BDE8C0
:103D4000F041FCF7DBBA0122FCF772BEFCF7D6BAF1
:103D5000024A00201107FCF76BBE000001FDFFFFC7
:103D600002E008C8121F08C1002AFAD17047704744
:103D7000002001E001C1121F002AFBD170470000A2
:103D80000149086070470000840000202DE9FF5FB2
:103D900082B00021DDE90430020DDDF840B00343BC
:103DA00018D044F61050A2F2FF3242431514119875
:103DB00001281FD0A5EB0B00401C5FEA000A4FF062
:103DC00000064E4FDFF83891B046504615D5CAF17F
:103DD000000413E0119801244AA3012801D16FEADD
:103DE0000B010298119AC0E90031C0E9024206B005
:103DF000BDE8F09FCBF10000DFE704460021404A18
:103E0000491842EB0450CDE9001012E0E00707D05A
:103E100032463B4640464946FCF717FB80468946FA
:103E200032463B4610461946FCF70FFB06460F4646
:103E30006410002CEAD1DDE90401DDE90023BAF1C8
:103E4000000F06DAFCF701FB42464B46FCF7FDFA91
:103E500005E0FCF76CFB42464B46FCF768FB04466A
:103E60000E460022284BFCF7B9FD03D84FF0FF3077
:103E7000014607E00022254B20463146FCF73EFA7A
:103E8000FCF77BFD102409E0002C0ADB0A2200234A
:103E9000FCF73CFC039B30321A55641E50EA0102C9
:103EA000F2D1641C039AC4F111031444119A012A3B
:103EB00003D0012208430DD10AE0084304D00020BA
:103EC0004FF0110B119072E7A3EB0B056D1E0DE087
:103ED0005B4504DD4FF0000205F1010504E003DA63
:103EE0004FF00002A5F10105002AECD002981199CB
:103EF000C0E90231C0E9004579E700000000144044
:103F00000000F03F300000000000F0430000E03F00
:103F10002DE9FF4F95B09A46884606460025EEE10A
:103F2000252877D100242746F94A0121039400E08F
:103F3000044316F8013F203B01FA03F01042F7D189
:103F400030782A2811D06FF02F033078A0F130029A
:103F5000092A16D8039A44F0020402EB820203EB0A
:103F600042021044761C0390EFE758F8042B0392AA
:103F7000002A03DA504244F40054039044F002044F
:103F8000761C30782E2816D116F8010F44F0040460
:103F90002A280DD06FF02F023078A0F13003092BC2
:103FA00009D807EB870302EB4303C718761CF3E736
:103FB00058F8047B761C30786C280FD006DC4C282F
:103FC00017D068280DD06A2814D104E0742810D0C6
:103FD0007A280FD10DE044F400140AE044F4801470
:103FE00001E044F440147278824202D104F5801456
:103FF000761C761C307866280BD013DC582877D0D6
:1040000009DC002875D04528F6D04628F4D047288A
:104010001AD193E118E0632835D0642879D0652857
:1040200012D18BE1702873D008DC6728F1D06928A1
:104030006FD06E280DD06F2806D1ACE073282CD03D
:10404000752874D0782853D05246179990476D1C24
:1040500054E1C4F30250022809D003280DD0D8F847
:10406000001004280DD00D6008F1040846E1D8F8CE
:104070000010EA17C1E90052F6E7D8F800100D80E9
:10408000F2E70D70F0E718F8041B8DF8001000201F
:104090008DF80100EB46012003E058F804BB4FF017
:1040A000FF3061074FF0000102D40DE009F101017A
:1040B0008946B9420FDA8145F8DB1BF8091000295F
:1040C000F4D108E009F1010189468142FADB1BF8CD
:1040D00009100029F6D103985346A0EB09072146A1
:1040E0003846179A00F080FA284400EB090507E0EB
:1040F00044E008E10DE01BF8010B52461799904788
:10410000B9F10109F7D2534621463846179AF2E031
:1041100039E00A21C4F302524FF0000B0091022A49
:1041200006D058F8040BC117032A09D00AE023E08F
:1041300008F1070020F00702F2E80201904605E0CE
:1041400000B2C117042A01D140B2C117002906DA12
:104150000A460021404261EB02012D2202E02205C5
:1041600004D52B228DF80420012203E0E20701D0C0
:104170002022F7E7914657E00A2100E010214FF096
:10418000000B00910BE010214FF0000B44F00404F1
:104190000827009103E008204FF0000B0090C4F3C3
:1041A0000252022A05D058F8040B0021032A08D035
:1041B00008E008F1070020F00702F2E8020190464B
:1041C00003E080B2042A00D1C0B24FF000092207F8
:1041D0002AD53278702A07D0DDF800C08CF0100C98
:1041E0005CEA0B0C05D00EE040228DF80420012281
:1041F00008E050EA010306D030238DF804308DF832
:10420000052002229146009B83F0080353EA0B032A
:104210000AD150EA010201D1620705D530228DF89A
:1042200004204FF001097F1E3278582A04D039A2A9
:104230000C920CAA02920BE03BA2F9E75B46009AB3
:10424000FCF764FA0C9B9B5C029A521E029213705C
:1042500050EA0102F2D1029804A9081A00F1200BD9
:10426000600702D524F4803400E001275F4502DDB9
:10427000A7EB0B0000E0002000EB0B01009003987F
:104280004944401A0390E00306D453462146179A46
:10429000039800F0A9F90544002706E001A852465A
:1042A000C05D179990476D1C7F1C4F45F6DBE003FE
:1042B0000CD553462146179A039800F095F905440A
:1042C00004E030205246179990476D1C0099481E13
:1042D00000900029F5DC08E0029802995246007827
:1042E000491C0291179990476D1CBBF10001ABF17D
:1042F000010BF1DC5BE100F065F90544761C3078D8
:1043000000287FF40DAE19B02846BDE8F08F0000FC
:10431000092801003031323334353637383961629B
:10432000636465660000000030313233343536375F
:10433000383941424344454600000000600700D43C
:10434000062708F1070020F00700F0E80223804666
:1043500003F0004C5FEA0C0001D097A009E02005B3
:1043600001D596A005E0E00701D095A001E0AFF2ED
:104370004C001390307823F0004365280CD006DC05
:10438000452809D046281DD047287FD13BE0662824
:1043900018D067287AD136E00021112F01DB1120D7
:1043A00000E0781CCDE9000104A90CA8FFF7EEFCA1
:1043B000DDE90D010C9A4FF0000B07F10109109295
:1043C00000914EE04FF000400097CDE9011004A9A4
:1043D0000CA8FFF7DBFCDDE90D020C9B0F994FF0F9
:1043E000000B91461093009211B9791C00EB010962
:1043F000B7EB090003D4C0F1FF3B07F10109A9EBBA
:104400000700019042E0012F00DA01270021112F5F
:1044100001DD112000E03846CDE9000104A90CA817
:10442000FFF7B4FCDDE90D010C9A00914FF0000B91
:10443000B946109221070FD4009A4A4503DA9146F3
:1044400001E0A9F10109B9F1010F05DD109AA9F107
:104450000101515C3029F4D0B84202DA10F1040FA6
:1044600003DA0121CDE9011010E0002803DC8344C8
:10447000A9EB000102E0411C494500DD8946A0EBA3
:104480000B00401C01904FF000400290200705D423
:104490000198484502DB4FF0FF30019000208DF875
:1044A0004B0002980DF14B07B0F1004F25D00220D0
:1044B0000C902B200D90029800280CDA40420290BC
:1044C0002D200D9007E00A210298FCF709F9303100
:1044D000029007F8011D0C99481E0C900029F2DC8F
:1044E00002980028EFD1791E0D980870307800F0FE
:1044F000200040F0450007F8020D11A8C01BC01DA8
:1045000002901398007800B1012000EB0901019896
:1045100001EBE071029801440398401A401E039099
:10452000E00306D453462146179A039800F05CF83E
:1045300005441398007818B15246179990476D1C9E
:10454000E00323D553462146179A039800F04CF810
:1045500005441BE0BBF1000F07DB0098584504DD64
:104560001098179910F80B0001E017993020524667
:10457000904701980BF1010B401E05F101050190D8
:1045800004D12E205246179990476D1CB9F10001B5
:10459000A9F10109DEDC05E017F8010B5246179975
:1045A00090476D1C0299481E02900029F4DC534686
:1045B0002146179A03989EE62D0000002B0000006C
:1045C000200000002DE9F041044600251E46174654
:1045D000880404D405E039462020B0476D1C641ED1
:1045E000F9D52846BDE8F0812DE9F04104460025C3
:1045F0001E469046C80301D5302700E020278804D6
:1046000004D505E041463846B0476D1C641EF9D517
:104610002846BDE8F08100002DE9F84F04460D461C
:1046200021F0004000917349814211DC72498842B7
:1046300001DC06D12CB120462946BDE8F84FFFF732
:1046400082BB6E48002DCCBF6D496E49BDE8F88F26
:104650006D49814211DD6D498142D8BF4FF0FF366F
:104660006DDD20462946FFF7F5FA042808BFFFF75D
:104670006FFB20462946BDE8F88F6549654F25F058
:104680000045814233DD6449814219DD002632460E
:104690004FF0804320462946FBF730FE80468A468D
:1046A000012220462946FCF7C3F900223B46FBF7CE
:1046B000C6FE42465346FBF73AFF04460D463EE02F
:1046C00001260022BA463B4620462946FBF716FE45
:1046D00080460F460022534620462946FBF7AFFE90
:1046E00042463B46FBF723FF04460D4627E04B4975
:1046F00081421BDDDFF828A1022600225346204616
:104700002946FBF7A2FE00223B46FBF7F7FD804659
:104710000F460022534620462946FBF790FE4246AC
:104720003B46FBF704FF04460D4608E003262246FD
:104730002B4600203B49FBF7FAFE04460D46224675
:104740002B4610461946FBF780FE8B4682460246F2
:104750000B46FBF77AFE07460246334888460B466F
:1047600006217844FFF79AFA52465B46FBF76DFE46
:1047700082462E488B463A46434605217844FFF749
:104780008DFA3A464346FBF760FE02460B46002E82
:10479000504659460CDAFBF7B1FD22462B46FBF793
:1047A00054FE01B022462B46BDE8F04FFBF74ABE4F
:1047B000FBF7A4FD22462B46FBF747FE1C4A7A4432
:1047C00002EBC603D3E90023FBF739FE22462B4652
:1047D000FBF735FE174A7A4402EBC603D3E9002300
:1047E000FBF730FE009A002AB8BF81F00041BDE817
:1047F000F88F0000000010440000F07F182D445492
:10480000FB21F93FFB21F9BF0000DC3F0000203E07
:104810000000F33F0000F03F0000E63F008003404F
:104820000000F83F0000F0BF620400002004000018
:10483000BE030000860300002DE9F04D9446CCF144
:10484000000423F000464CEA0404594F46EAD474AD
:104850009A46884621F00042BC4206D8454240EACA
:10486000050442EAD474BC4204D9BDE8F04D624666
:10487000FFF76CBAAAF14055A5F17F6555EA0C0423
:104880000BD0022404EAAA744A4DDFF82CE144EA72
:10489000D87452EA000B04D00CE0BDE8F04DFFF7ED
:1048A000BBBE002C14BF012CBDE8F08D022C30D013
:1048B000032C32D056EA0C0B0AD0BE4220D1BA42A9
:1048C00009D126F0804622F080423346114617E097
:1048D00000291ADB25E0DFF8E4B0FB44002C04BF1C
:1048E000DBE90001BDE8F08D012C02BFDBE900012E
:1048F00081F00041BDE8F08D022C0AD0032C0CD0D1
:10490000BA4212D1B8F1000F0BDA2A482C49BDE89F
:10491000F08D28462B49BDE8F08D28467146BDE84C
:10492000F08D24482849BDE8F08D921B12153C2AD1
:10493000C4BF204F244E10DCBAF1000FBEBF12F1ED
:104940003C0F00273E4608DB6246FBF7F0FD21F0F6
:104950000041FFF761FE07460E4694B1012C08BFE7
:1049600086F000460DD0194A194B022C38463146C4
:1049700015D0FBF764FD2A46BDE8F04D114BFBF75F
:104980005EBD0022134638463146FCF70FF804BFDF
:104990000220FFF7F5F938463146BDE8F08DFBF708
:1049A0004EFD2A46BDE8F04D064BFBF74BBD00001F
:1049B0000000F07F182D4454FB2109C01A030000A9
:1049C000FB21F9BFFB210940FB21F93F075C1433B0
:1049D00026A6A13C13B54FF0FF33012269460248D9
:1049E000FDF784FF00981CBD20020020FDF774F83D
:1049F000FEF7FEFEFEF7B6FDFEF79EFDFEF75CFD40
:104A0000FEF75CFEFEF706FEFEF7E4FD1B48FCF732
:104A100025F903221A491948FCF7E2FA002119483E
:104A2000FDF7A0FE04211748FDF79CFE164D284611
:104A3000FCF7D4F8134C216848632846FCF7CEF8FD
:104A4000216888631148FEF7C1FC2046FDF79CFCF5
:104A50000B4C241F206858B109480830FEF700FAB3
:104A600007480830FEF7B0FE1420FCF74FFCF1E7D2
:104A7000034903480831FEF7A9F9F1E710010020C6
:104A80005C000020D80100200000B4428401002016
:104A90000EB564230092CDE90113024603480123B9
:104AA000D021C068FCF712FE0EBD000000000020FF
:104AB0001FB5C8238DF80C10012203A98DE80E0044
:104AC000134602460248D021C068FCF72DFF1FBDE7
:104AD000000000202DE9F04106460F46FBF7FCFEE2
:104AE000041E0D4618BF0120284320F00040C0F1ED
:104AF0007F6000F1E040C00F0ED0301C18BF0120D5
:104B0000384320F00040C0F17F6000F1E040C00F6A
:104B100004BF0120FFF734F920462946BDE8F081A3
:104B2000010202030405060708090A0B0C0D0E0F0B
:104B30001010010202030405060708090A0B0C0DF8
:104B40000E0F10100000000000000000010203041E
:104B5000060708090000000001020304000000002D
:104B60004FBB610567ACDD3F182D4454FB21E93F85
:104B70009BF681D20B73EF3F182D4454FB21F93F74
:104B8000E2652F227F2B7A3C075C143326A6813CFA
:104B9000BDCBF07A8807703C075C143326A6913CA5
:104BA000C4EB98999999C9BF711623FEC671BCBF11
:104BB0006D9A74AFF2B0B3BF9AFDDE522DDEADBF79
:104BC0002F6C6A2C44B4A2BF0D5555555555D53F91
:104BD000FF8300922449C23F6E204CC5CD45B73FAC
:104BE000513DD0A0660DB13FEB0D76244B7BA93F24
:104BF00011DA22E33AAD903F00000000000000000F
:104C0000204C00080000002088000000603D0008E3
:104C1000A84C000888000020E0050000703D000856
:104C20000100000000000000000000000000000083
:104C30000000000000000000000000000000000074
:104C4000000000000000803F0000000000000000A5
:104C50000000000000000000000000000000000054
:104C60000000000000000000000000000000000044
:104C70000000000000000000000000000000000034
:104C80000000000000000000000000000000000024
:104C900001000000100000000000000000127A0077
:084CA00000000000000000000C
:04000005080000ED02
:00000001FF
