:020000040800F2
:1000000028050020050100086B2200089D2000083B
:1000100069220008990A0008AB26000800000000C9
:100020000000000000000000000000006F22000837
:10003000D30A0008000000006D22000871220008A9
:100040001F0100081F0100081F0100081F01000810
:100050001F0100081F0100081F0100081F01000800
:100060001F0100081F0100081F0100089D0A000869
:100070001F0100081F0100081F0100081F010008E0
:100080001F0100081F0100081F0100081F010008D0
:100090001F0100081F0100081F0100081F010008C0
:1000A0001F0100081F0100081F0100081F010008B0
:1000B0001F0100081F0100081F0100081F010008A0
:1000C0001F0100081F0100081F0100081F01000890
:1000D0001F0100081F0100081F0100081F01000880
:1000E0001F0100081F0100081F010008DFF810D0E1
:1000F00000F066FB00480047B12F0008AFF3008016
:10010000280500200648804706480047FEE7FEE72E
:10011000FEE7FEE7FEE7FEE7FEE7FEE7FEE7FEE7B7
:10012000ED220008ED000008202A04DB203A21FA25
:1001300002F00021704721FA02F3D040C2F1200200
:100140009140084319467047D2B201E000F8012BF4
:10015000491EFBD270470022F6E710B513460A4647
:1001600004461946FFF7F0FF204610BDF0B480EAC0
:100170000102D40F4200B2EB410F02D20246084600
:1001800011464A0042D0C30DDDB2C1F3C752AD1AC9
:10019000202D35DAC1F3160141F4000204B15242B8
:1001A000C5F1200602FA06F12A411044B3EBD05FF4
:1001B00023D0C4B1012DA0EBC35009DCF0BC4FF03B
:1001C000004202EAC352DBB200F5000000F012B9AF
:1001D000400000F1807000EBC350A0F1807040EA55
:1001E000D170490009E0490841EAC071A0EBC35051
:1001F00000F50000400800EBC350F0BC00F0F1B87F
:100200006142012202EB4101001BF6E7F0BC70479E
:1002100081F00041AAE780F00040A7E780EA0102F0
:1002200010B502F00043400022D04A001FD0010E5A
:1002300001EB1261C0F35600C2F3560240F4000015
:1002400042F40002A0FB022000047F39140400D015
:10025000401C50EA124001D44000491EC2B20C06B4
:1002600004EBD010401C4008802A02D003E000209C
:1002700010BD20F00100002900DA0020184310BD55
:1002800030B480EA010202F0004530F0004221F073
:10029000004013D090B1C30DD40DC2F31601C0F3CA
:1002A0001600E41A41F4000140F400027D3491424A
:1002B00001D3641C00E04900002C02DA30BC0020AD
:1002C00070474FF400000023914201D3891A034381
:1002D00040084FEA4101F7D151B1914202D14FF0AC
:1002E000004105E002D24FF0010101E06FF0010191
:1002F00003EBC450284430BC00F073B896230022AE
:10030000114600F077B820F00040C10DC0F3160090
:1003100040F400007F2901DA00207047962903DCB1
:10032000C1F19601C840704796398840704700F087
:10033000004230F000400AD0C10D01F56071C0F3F9
:10034000160042EA0151C2084007114370470020DD
:100350000146704730B50B4601460020202201249B
:1003600009E021FA02F59D4205D303FA02F5491B83
:1003700004FA02F52844151EA2F10102F1DC30BD99
:100380002DE9F05F0546002092469B4688460646CA
:10039000814640241BE02846414647462246FFF757
:1003A000C3FE53465A46C01A914110D3114618460F
:1003B000224600F017FA2D1A67EB01084F46224635
:1003C0000120002100F00EFA17EB00094E41201E1B
:1003D000A4F10104DFDC484631462A464346BDE825
:1003E000F09F0029A8BF7047401C490008BF20F0BB
:1003F0000100704710B4B0FA80FC00FA0CF050EA2B
:10040000010404BF10BC704749B1CCF1200421FAAB
:1004100004F411FA0CF118BF012121430843A3EBA6
:100420000C01CB1D4FEA00614FEA102042BF0020B3
:1004300010BC704700EBC35010440029A4BF10BC8F
:100440007047401C490008BF20F0010010BC7047F5
:100450002DE9FE4F804681EA0300C00F0C46009054
:1004600021F0004123F00045B8EB0200A94105D27C
:100470004046214690461C460B46024623F000406B
:10048000104347D0270DC7F30A00C3F30A51029067
:10049000401A019040286BDAC3F3130040F4801B2C
:1004A0000098924620B10023D2EB030A63EB0B0BBA
:1004B00001985946C0F14002504600F093F90646B3
:1004C0000D4650465946019A00F09BF910EB080082
:1004D0006141002487EA115284EAE7731A4340D04D
:1004E000009A62B3019A012A4FEA075215DC001BF9
:1004F00061EB02014FF0004202EA0752CDE90042EF
:10050000001C41F5801132462B4600F09BF903B0E8
:10051000BDE8F08F40462146F9E7001B61EB020180
:10052000001C41F5801300185B412018A2F500174C
:1005300047EB030140EAD570B6196D4111E06D0833
:100540004FEA360645EAC0754FEA0752001B61EBD9
:100550000201001C41F5801149084FEA30000019E2
:10056000514132462B4603B0BDE8F04F00F05BB975
:100570000098012240000023D0EB020263EBE073FD
:10058000009821464FEAE074B8EB000061EB0401EB
:10059000E9E783F000435BE781F0004158E72DE98C
:1005A000FE4F81EA030404F0004421F0004100946E
:1005B0004FF0000B23F0004350EA01045ED052EAF2
:1005C00003045BD0C3F30A54C1F30A552C44A4F2CC
:1005D000F3340194A0FB0254C1F3130141F48011E0
:1005E000C3F3130343F4801301FB024400FB034EE7
:1005F000840A970A44EA815447EA8357A4FB0768B0
:1006000002958D0A05FB07854FEA932C04FB0C54D9
:100610002705029D4FEA065847EA1637B5EB08054D
:100620006EEB070C870E920E47EA811742EA83129F
:10063000A7FB0201B6EB0B0164EB00042B0D43EAB0
:100640000C335E1844EB1C50DA465146E7FB0201BE
:10065000C5F313044FEA0B3343EA14534FEA043251
:10066000019C43EA0603A4F10C040294009CCDE92A
:1006700000B400F0E7F803B0BDE8F08F00200146B9
:10068000F9E72DE9F04D81EA030404F0004B21F075
:10069000004514464FF0000A23F0004150EA0502DD
:1006A00020D054EA01021DD0C5F30A570246C5F313
:1006B0001303C1F31300C1F30A5640F4801543F449
:1006C0008013A7EB0608101BD64608F2FD3873EB23
:1006D000050002D308F1010801E092185B41B8F16E
:1006E000000F03DA00200146BDE8F08D00204FF432
:1006F0008011064684460EE0171B73EB050705D3F1
:10070000121B63EB050306434CEA010C49084FEA50
:10071000300092185B4150EA0107EDD152EA030024
:1007200012D082EA040083EA0501084305D0101BB9
:10073000AB4106D20122002306E000224FF0004325
:1007400002E06FF0010253101AEB06004CEB085167
:1007500010EB0A0041EB0B01BDE8F04D00F063B86F
:10076000C1F30A52C1F3130140F2FF3341F4801187
:100770009A4202DA00200146704740F233439A421F
:10078000A2F2334202DC5242FFF7CEBC00F02AB89C
:1007900030B5041E71F1000404DB4FF00044404208
:1007A00064EB0101141E73F1000405DB1C464FF0DD
:1007B0000043524263EB0403994208BF904230BDAC
:1007C000064C074D06E0E06840F0010394E807009E
:1007D00098471034AC42F6D3FFF78CFC0031000888
:1007E00020310008202A04DB203A00FA02F1002020
:1007F00070479140C2F1200320FA03F3194390405F
:100800007047202A06DBCB17203A41FA02F043EA70
:10081000E07306E041FA02F3D040C2F120029140B9
:1008200008431946704710B5141E73F1000408DA26
:10083000401C41F1000192185B411A4301D120F0A4
:10084000010010BD2DE9F04D92469B4611B1B1FA61
:1008500081F202E0B0FA80F220329046FFF7C2FF48
:1008600004460F4640EA0A0041EA0B0153465A4645
:10087000084313D0114653EA010019D0C8F14002D1
:100880005046FFF751FC05460E4650465946424633
:10089000FFF7A8FF084305D0012004E020463946B1
:1008A000BDE8F08D0020054346EAE0762C4337434F
:1008B0000A986305E40AA0EB08000022FD0A44EA56
:1008C00047540A3002D500200146E9E70105101916
:1008D0006941DDE9084500196941BDE8F04DA2E72D
:1008E00070B5044600688168C943C90717D181689B
:1008F00021F00101816000F049FD05460AE000BFDA
:1009000000F044FD401B022804D920688068C043E1
:10091000C00706D020688068C043C007F0D0002020
:1009200070BDA06A40F01000A062E06A40F00100D3
:10093000E062012070BD10B50146406A826A12F083
:10094000500F05D0006A026BBDE810400846104702
:10095000816A41F40071816201688968C1F3424192
:1009600007290CD1017B51B9816A21F48071816220
:10097000816AC90403D4816A41F00101816200F0F7
:1009800095F910BD10B5406A816A41F0400181625D
:10099000C16A41F00401C16200F08AF910BD10B5CE
:1009A000406A00F084F910BDF8B5002604460096B0
:1009B00000688168C943C9072DD0816841F00101F1
:1009C0008160164816490068B0FBF1F000E0401E57
:1009D00000900028FBD100F0D9FC054616E000BFCE
:1009E00000F0D4FC401B022810D920688068C04366
:1009F000C0070BD0A06A40F01000A062E06A40F08F
:100A00000100E06284F824600120F8BD206880685D
:100A1000C043C007E4D10020F8BD0000180000204A
:100A200040420F0070B505460A4809490068FFF7C3
:100A300027FC04462846FFF761FC0749FFF7EEFB59
:100A40000649FFF71DFC2146BDE87040FFF7E6BBF5
:100A500033335340000000200000344300F07F4552
:100A600010B50A4910F1FF4F01D3002002E088427F
:100A700000DD0846FFF704FC0549FFF7CFFB0549F9
:100A8000FFF774FBFFF73FFC80B210BD000034435A
:100A90000000FA440000FA43FEE70000014800F0BD
:100AA00063BA00005000002030B590F84050012497
:100AB000AC40C56B6C60046863604368102B0368CE
:100AC00003D099600068C26030BD9A600068C16060
:100AD00030BD704772B6FEE7F8B5002504460095B4
:100AE00090F8240001280BD0012084F8240020462F
:100AF000FFF7F6FE2046FFF757FF060002D050E052
:100B00000220F8BDA06A20F4885040F00200A062E4
:100B1000022000F0D9FC25490968B1FBF0F0400043
:100B200000E0401E00900028FBD12068816841F061
:100B30000801816000F02AFC074608E000F026FC6E
:100B4000C01B0A2803D920688068000715D42068D4
:100B500080680007F2D42068816841F00401816058
:100B600000F014FC074612E000F010FCC01B0A283D
:100B70000DD920688068400709D5A06A20F00200DE
:100B800040F01000A06284F824500120F8BD2068D5
:100B900080684007E8D4A06A20F0020040F001001D
:100BA000A06284F824503046F8BD000018000020F0
:100BB000F8B50024009490F824202546012A12D08C
:100BC000012280F824204A681F23072A0DD20668D4
:100BD000776B521E02EB820293409F430B68934057
:100BE0001F43776319E00220F8BD06680D2A0AD278
:100BF000376BD21F02EB820293409F430B689340F6
:100C00001F43376309E0F76A0D3A02EB8202934013
:100C10009F430B6893401F43F7620A6807230668E7
:100C20000A2A0AD3F7680A3A02EB420293409F432A
:100C30008B6893401F43F76008E0376902EB42027C
:100C400093409F438B6893401F4337610A68102A83
:100C500001D0112A20D1124B02689A4217D1936811
:100C60001B0219D4936843F40003936009681029A8
:100C700012D10C490C4A0968B1FBF2F101EB810178
:100C8000490000E0491E00910029FBD104E0816A7F
:100C900041F020018162012480F824502046F8BDF3
:100CA000002401401800002040420F0070477047A8
:100CB000704700002DE9F0414FF0000704003D4669
:100CC0007ED0A06A002628B9E66284F82460204617
:100CD00000F07EF82046FFF703FEA16AC90600D4A3
:100CE00020B1A06A40F01000A06269E0A16A21F47E
:100CF000885141F00201A1626268E169237B0A43E5
:100D000047EA43010A43A1684FF48077B94209D00A
:100D1000012907D05FF0000194F814C0BCF1010F65
:100D200002D00AE03946F7E7F3B1A36A43F02003A3
:100D3000A362E36A43F00103E3622368D3F804C0CB
:100D40002CF4694C4CEA010CC3F804C021688B6890
:100D5000DFF870C003EA0C0313438B60A168B9424B
:100D60000BD0012909D00CE0DFF85CC0A3690CEBC3
:100D700043330B4343F40061DFE7218A0D05A5F5FA
:100D800080152168CB6A23F470032B43CB62216862
:100D900089680E4B1940914208D1E662A16A21F0A0
:100DA000020141F00101A162BDE8F081A06A20F0DA
:100DB000020040F01000A062E06A40F00100E06232
:100DC0000120F1E7FDF7E1FF00E0FFFFFE0E1FFF4E
:100DD00070B586B0002506460095019502950395ED
:100DE0000068194988422DD11849886940F400707B
:100DF0008861886900F400700490886940F00800F8
:100E000088618869694600F008000490032000901A
:100E100001900F4800F0CAF90F4C0E48C4E90005D4
:100E20008020C4E9025040002061800060612020E1
:100E3000C4E90605204600F041F908B1FFF74AFE73
:100E40003462666206B070BD0024014000100240AA
:100E5000000C014008000240500000202DE9F0473E
:100E6000894604463B4900683B4F0E1D9046884228
:100E700001D0B84207D1306810F4702F03D001259B
:100E80002846BDE8F08794F8240001280CD0012002
:100E900084F824002046FFF787FD05004FF000008E
:100EA00004D084F82400EBE70220EAE7A16A40F6C8
:100EB0000162914341F48071A1622168B94218D165
:100EC000326812F4702F14D0A16A41F48011A1622B
:100ED0003168490505D5A16A21F4005141F48051DA
:100EE000A162A16AC9040AD5E16A21F00601E162A2
:100EF00006E0A26A22F48012A2624968E9E7E06291
:100F000084F82400216A15488862216A1448C8625E
:100F1000216A1448086321686FF0020008602068A5
:100F2000816841F480718160216843464A464C31B2
:100F3000206A00F0F1F820688168C1F34241072976
:100F4000816803D041F48011816099E741F4A001E8
:100F5000FAE700000024014000280140370900089A
:100F60009F090008850900082DE9F05FC16B0C6836
:100F700001680B68D0F840C0042202FA0CF2494D17
:100F8000DFF824A1494E4A4FDFF828B1DFF828E105
:100F900022422CD05A072AD50A68920603D40A683E
:100FA00022F004020A600168A94201D1042219E07A
:100FB000514501D1402215E0B14202D14FF4806287
:100FC00010E0B94202D14FF480420BE0594502D102
:100FD0004FF4802206E0714502D14FF4800201E017
:100FE0004FF080622F4908394A60C16A3BE04FF0F8
:100FF000020808FA0CF818EA040F4FF000094FF045
:10100000010235D05FEA837832D50B689B0605D4A0
:101010000B6823F00A030B6080F821200168A942C5
:1010200001D1022219E0514501D1202215E0B1423F
:1010300002D14FF4007210E0B94202D14FF40052D5
:101040000BE0594502D14FF4003206E0714502D160
:101050004FF4001201E04FF00072124908394A6063
:1010600080F82090816A00291AD0BDE8F05F084717
:10107000082505FA0CF5254212D01B0710D50B6880
:1010800023F00E030B6090F84010C36B02FA01F1DD
:101090005960826380F8212080F82090016BE2E79C
:1010A000BDE8F09F080002401C00024030000240F2
:1010B00044000240580002406C00024030B528B3A2
:1010C00008C8134914221944B1FBF2F18900C16325
:1010D00010498163022141771A6843F6F0718A430F
:1010E000D0E900142143D0E902452C43214304698F
:1010F000214344692143846921431143196000213C
:101100004163012242770177084630BD012030BD9E
:10111000F8FFFDBF0000024070B5044690F82000C3
:10112000002501280CD0012084F8200094F82160CB
:101130000020012E06D084F820000225284670BD2C
:10114000022070BD022684F82160A0632068066832
:1011500026F0010606602046FFF7A6FCE06A00289C
:101160002068016802D041F00E0106E021F0040180
:1011700001602068016841F00A010160206801688F
:1011800041F001010160D9E770B5044600F0FEF8B6
:101190000546601C02D004480078044400F0F6F8CC
:1011A000401BA042FAD370BD0C0000202DE9F84F7F
:1011B000DFF8B8910024A9F1040B23460F2709F1A9
:1011C000040AABF1040EC9E00125A5402A40AA4259
:1011D0007DD1674ED1F804C0ACEB0608B44532D0DF
:1011E00014DCBCF1030F3AD009DCBCF1000F2AD0AB
:1011F000BCF1010F1CD0BCF1020F31D11DE0BCF1DC
:10120000110F17D0BCF1120F2AD119E0B8F5881FC1
:1012100019D006DCB8F5803F15D0B8F5801F1FD176
:1012200011E0B8F5001F0ED0B8F5041F18D10AE080
:10123000CB6815E0CB681B1D12E0CB6808330FE0CC
:10124000CB680C330CE08B682BB1012B4FF00803FB
:1012500003D0456104E0042302E0056100E00023BF
:10126000FF2A01D8064601E000F104064FEA840592
:1012700001D9A5F12005D6F8008007FA05FC28EA77
:101280000C0803FA05F548EA0508C6F800804D6821
:10129000ED0062D5374DAE6946F00106AE61AD692D
:1012A00024F0030605F001050095334D06EB050C0F
:1012B000DCF80850A607360F07FA06F825EA0805F5
:1012C000DFF8B880404503D14FF0000817E044E054
:1012D000DFF8AC80404502D14FF001080FE0DFF8A5
:1012E000A480404502D14FF0020808E0DFF8988062
:1012F000404502D14FF0030801E04FF0040808FA1E
:1013000006F848EA0508CCF808804D68D9F800606E
:10131000ED024D4601D5164300E096432E604D6820
:10132000DAF80060AD02554601D5164300E0964359
:101330002E604D68DBF80060AD035D4601D51643B5
:1013400000E096432E604D68DEF80060ED037546C0
:1013500001D5164300E096432E60641C0D682A46B2
:10136000E5407FF431AFBDE8F88F0000080401408C
:101370000000111000100240000001400008014070
:10138000000C014000100140001401400148806839
:10139000704700000C000020024881680278114468
:1013A000816070470C000020074810B5016841F0CB
:1013B00010010160032000F075F80F2000F006F81E
:1013C00000F024F8002010BD0020024070B50D4D43
:1013D00004464FF47A712878B1FBF0F00A490968A5
:1013E000B1FBF0F000F0A4FB48B9102C07D20022AA
:1013F0002146501E00F036F800206C6070BD0120C0
:1014000070BD00000C000020180000200C4808B53A
:10141000816941F001018161816901F0010100915F
:10142000C16941F08051C161C06900F080500090F5
:101430000448416821F0E06141F00071416008BD5D
:101440000010024000000140002809DB00F01F02EC
:10145000012191404009800000F1E020C0F8001116
:1014600070470000F0B40E4B1B680C46C3F3022318
:10147000C3F10705042D00D90425191D072901D240
:10148000002300E0DB1E012606FA05F1491E21407B
:1014900099409E40761E16403143F0BC01F016B9CB
:1014A0000CED00E0064900F0070208684FF6FF0364
:1014B000184040EA0220034A1043086070470000C9
:1014C0000CED00E00000FA0510B501460020234CA9
:1014D000012922D0022939D010291DD16168226842
:1014E000D20119D51E48C1F38342C903805C0AD5D5
:1014F00061681B4AC1F34041921E515C194AB2FB1C
:10150000F1F1484301E0184948436168490203D4B6
:1015100040000321B0FBF1F010BD226AC2F30121AB
:10152000012903D1920701D5C80310BD022905D1B5
:10153000626A920702D549F6404010BD0329FCD1EA
:1015400021688903F9D54FF2244010BD00F02AF933
:101550006168C1F38131491C4900DBE7001002409A
:10156000D830000800127A0000093D002DE9F84348
:1015700005460078354CC00754D0E0690026C0000D
:1015800008D4E06940F08050E061E069012600F095
:10159000805000902E480168C90512D40168804629
:1015A00041F480710160FFF7F1FE074605E000BFDE
:1015B000FFF7ECFEC01B642823D8D8F80000C00554
:1015C000F6D5206A10F4407021D0A98801F440714A
:1015D00081421CD0206A1F49012220F440700A6019
:1015E00000220A602062C00711D0FFF7CFFE074635
:1015F00041F2883808E000BFFFF7C8FEC11B414533
:1016000002D90320BDE8F883206A8007F4D5206A58
:10161000696820F44070084320621EB1E06920F040
:101620008050E0612878800705D56068A96820F4BB
:101630004040084360602878C00605D56068E968C6
:1016400020F48000084360600020DBE700100240C7
:1016500000700040400442422DE9F0470F4605006B
:1016600061D0434E306800F00700B84209D23068BC
:1016700020F0070038433060306800F00700B842BF
:1016800051D128683B4C810712D5400703D56068CB
:1016900040F4E06060602878000703D5606840F49B
:1016A000605060606068A96820F0F00008436060E6
:1016B0002878C00728D06868012810D0216802283F
:1016C00010D0890700292EDA616821F00301014357
:1016D0006160FFF75BFE804641F288390DE02168CA
:1016E0008903EFE78901EDE7FFF750FEA0EB080162
:1016F000494502D90320BDE8F0876068696800F0B9
:101700000C00B0EB810FEFD1306800F00700B84259
:101710000BD9306820F0070038433060306800F0A3
:101720000700B84201D00120E5E72878400705D539
:101730006068E96820F4E06008436060287800078A
:1017400006D56068296920F4605040EAC1006060F5
:1017500000F038F86168084AC1F30311515CC840D1
:101760000649086006480068FFF730FE0020C2E71F
:101770000020024000100240E8300008180000205D
:10178000100000200448054900684968044AC1F374
:101790000221515CC8407047180000200010024030
:1017A000F83000080448054900684968044AC1F354
:1017B000C221515CC8407047180000200010024050
:1017C000F83000080E4A51680E4801F00C03042B53
:1017D00011D0082B0FD10C48C1F38343C903C05C5F
:1017E0000AD55168084AC1F34041921E515C054A2E
:1017F0005043B0FBF1F07047044948437047000084
:101800000010024000127A00C630000800093D00B6
:101810002DE9F84F040070D02078C04DC00749D0A2
:101820006868C0F38100012807D06868C0F38100B0
:10183000022809D16868C00306D52868800339D515
:1018400060680028E7D035E06068B0F5803F0BD0D5
:1018500010B1B0F5A02F11D0286820F48030286096
:10186000286820F4802002E0286840F48030286056
:10187000606890B1FFF78AFD06460AE0286840F4E8
:1018800080202860F0E700BFFFF780FD801B642800
:1018900073D828688003F7D50CE0FFF777FD06467C
:1018A00005E000BFFFF772FD801B6428F0D82868B0
:1018B0008003F7D420789A4E80074FF001094FF04B
:1018C000000839D5686810F00C0F07D06868C0F3BD
:1018D0008100022809D16868C00306D428688007FF
:1018E00014D52069012808D110E02069B0B1C6F8EC
:1018F0000090FFF74BFD074605E00AE1FFF746FDC4
:10190000C01B0228C4D828688007F7D528686169F9
:1019100020F0F80040EAC10028600DE0C6F8008021
:10192000FFF734FD074604E0FFF730FDC01B022837
:1019300023D828688007F7D4207800072CD5794869
:10194000A169D9B1C0F80090FFF720FD074604E077
:10195000FFF71CFDC01B02280FD8686A8007F7D567
:1019600071484FF4FA510068B0FBF1F0009000BFED
:101970000098411E0091FAD20EE080E0C0F800808D
:10198000FFF704FD074604E0FFF700FDC01B022837
:1019900075D8686A8007F7D42078400760D5E86971
:1019A0000027C00008D4E86940F08050E861E86989
:1019B000012700F0805000905C480168C90513D4ED
:1019C0000168834641F480710160FFF7DFFC8246C5
:1019D00006E000BFFFF7DAFCA0EB0A0064284ED84F
:1019E000DBF80000C005F5D5E06801280AD008B191
:1019F000052813D0286A20F001002862286A20F008
:101A0000040002E0286A40F001002862E06841F228
:101A1000883B98B1FFF7BAFC82460BE0286A40F099
:101A200004002862EEE700BFFFF7B0FCA0EB0A015C
:101A300059455AD8286A8007F6D50CE0FFF7A6FC6E
:101A4000824605E0FFF7A2FCA0EB0A0159454CD8FD
:101A5000286A8007F6D41FB1E86920F08050E86159
:101A6000E06988B36968C1F38101022944D0022882
:101A7000C6F8608004D0FFF789FC044638E034E003
:101A8000FFF784FC074604E0FFF780FCC01B022838
:101A90002BD828688001F7D4206AB0F5803F05D1A3
:101AA0006868A16820F4003008436860D4E9080140
:101AB0000843696821F4741108436860C6F86090AF
:101AC000FFF764FC044606E025E000BFFFF75EFC7C
:101AD000001B022809D828688001F7D51BE000BF49
:101AE000FFF754FC001B022802D90320BDE8F88F41
:101AF00028688001F4D40EE00128F7D06868226AD3
:101B000000F48031914204D1616A00F4701088427F
:101B100001D00120EAE70020E8E7000000100240C1
:101B20000000424280044242180000200070004041
:101B300010B5401EB0F1807F01D3012010BD4FF0E1
:101B4000E02460610F21601700F0C0FD0020A0615B
:101B500007202061002010BD70B590F83C20012ABC
:101B600026D0012480F83C40022280F83D20036802
:101B70005A689D6822F070060A6832435A600D4B1D
:101B800002689A4208D0B2F1804F05D00A4B9A42BF
:101B900002D00A4B9A4204D1496825F080031943C8
:101BA000916080F83D40002180F83C10084670BDEF
:101BB000022070BD002C01400004004000080040DD
:101BC00010B5040003D094F83D0010B107E00120E7
:101BD00010BD002084F83C00204600F01FF80220D1
:101BE00084F83D00211D206800F082FB012084F86C
:101BF000460084F83E0084F83F0084F8400084F8F2
:101C0000410084F8420084F8430084F8440084F8DA
:101C1000450084F83D00002010BD000008B50068B4
:101C2000B0F1804F08D10548C16941F00101C1619F
:101C3000C06900F00100009008BD000000100240E3
:101C400070B5044690F83C000025012817D0012605
:101C500084F83C60022084F83D002068826822F00D
:101C6000770222F47F4282600868502838D00DDC69
:101C700020284FD005DC90B3102811D14AE0022073
:101C800070BD302846D040280AD13BE060282FD0D4
:101C900070280DD0B0F5805F03D0B0F5005F12D092
:101CA000012584F83D60002084F83C00284670BD82
:101CB000CB68D1E90121206800F063FB20688168CE
:101CC00041F0770109E0CB68D1E90121206800F0FB
:101CD00058FB2068816841F480418160E1E719E0A8
:101CE000CA684968206800F001FC5021206806E0BD
:101CF000CA684968206800F00AFC6021206800F08A
:101D00004AFBCEE7CA684968206800F0EFFB402133
:101D10002068F4E7226801461046F0E700B585B078
:101D2000002100910191029103910068B0F1804F70
:101D300011D10A48816941F00401816180696946D5
:101D400000F0040004900320009002200190039012
:101D50000348FFF72BFA05B000BD00000010024059
:101D60000008014070B5044690F83C0000260D467E
:101D700001280FD0012084F83C006AB1042A1DD04C
:101D8000082A2FD00C2A3FD00126002084F83C00DE
:101D9000304670BD022070BD206800F005FB206851
:101DA000816941F0080181612068816921F00401A5
:101DB0008161206881692A69114311E0206800F07F
:101DC0001BFB2068816941F40061816120688169A1
:101DD00021F480618161206881692A6941EA0221D8
:101DE0008161D2E7206800F033FB2068C16941F0CF
:101DF0000801C1612068C16921F00401C161206846
:101E0000C1692A69114311E0206800F04DFB206888
:101E1000C16941F40061C1612068C16921F4806138
:101E2000C1612068C1692A6941EA0221C161ACE748
:101E300010B5040003D094F83D0010B107E0012074
:101E400010BD002084F83C00204600F01EF802205F
:101E500084F83D00211D206800F04AFA012084F832
:101E6000460084F83E0084F83F0084F8400084F87F
:101E7000410084F8420084F8430084F8440084F868
:101E8000450084F83D00002010BD704710B50446A1
:101E9000022249B104290ED0082913D094F8410038
:101EA000012816D0012010BD94F83E000128F9D178
:101EB00084F83E200FE094F83F000128F2D184F826
:101EC0003F2008E094F840000128EBD184F840203E
:101ED00001E084F841200122206800F045FA0F4912
:101EE0002068884203D1426C42F400424264206878
:101EF000884208D0B0F1804F05D00949884202D00D
:101F00000849884204D1816801F00701062903D0FD
:101F1000016841F001010160002010BD002C01406A
:101F2000000400400008004070B5040004D094F89C
:101F30004100002510B106E0012070BD84F840503A
:101F4000204600F023F8242084F841002068C1686E
:101F500021F40051C160204600F012FB20680169A5
:101F600021F4904101612068416921F02A01416119
:101F70002068C16841F40051C1606564202084F884
:101F8000410084F842006563002070BD30B585B023
:101F90000024009401940294039400681449884238
:101FA00024D11448816941F480418161816901F43F
:101FB00080410491816941F00401816180690E4D85
:101FC00000F0040004904FF4007000900220019093
:101FD0000320039069462846FFF7E8F82815CDE965
:101FE0000004694628460294FFF7E0F805B030BDCA
:101FF0000038014000100240000801402DE9F8437C
:10200000044690F84100984616460D46202802D016
:102010000220BDE8F88385B17EB1002060642120F4
:1020200084F84100FFF7B2F9A6848146E684A068EF
:102030002027B0F5805F02D003E00120E9E72069A6
:1020400010B12E4600250EE000260CE0802120462F
:1020500000F0F2FAA8B9C6B116F8010B2168486081
:10206000E08C401EE084E08C4B464FF00002CDF83F
:1020700000800028EAD14FF04001204600F0DCFA51
:1020800040B184F841700320C3E735F8020BC0F378
:102090000800E3E784F841700020BAE7FEE700009B
:1020A0003EB500211D48009101911B4A029102603A
:1020B0009215826001240473017503254FF4602298
:1020C0000561C2614160FEF7F5FD08B1FEF702FD52
:1020D0000820CDE900040620029069460F48FEF76B
:1020E00067FD08B1FEF7F6FC092000900220019080
:1020F00069460A48FEF75CFD08B1FEF7EBFC1120CB
:10210000CDE9000569460548FEF752FD002801D0DB
:10211000FEF7E0FC3EBD000000240140200000204E
:10212000094808B5416941F0010141614069002257
:1021300000F00100009011460B20FFF793F9BDE875
:1021400008400B20FFF780B9001002400D4808B589
:10215000816941F020018161816901F020010091D4
:10216000816941F004018161816901F004010091FC
:10217000816941F008018161806900F008000090E8
:1021800008BD00000010024010B58EB00024079476
:10219000089409940A940B941C2168460C94FDF74A
:1021A000DAFF22484FF0804101604721C0E9011465
:1021B00044F61F61C0E903148461FFF701FD08B113
:1021C000FEF788FC4FF48050079007A91748FFF7E7
:1021D00037FD08B1FEF77EFC1448FFF729FE08B171
:1021E000FEF778FC0B940BA910480C94FFF7B4FC95
:1021F00008B1FEF76FFC6020CDE9000402940022D4
:1022000069460A480494FFF7ADFD08B1FEF762FC89
:10221000042269460548FFF7A5FD08B1FEF75AFC00
:102220000248FFF77BFD0EB010BD000094000020B7
:102230000C4810B50A4901604FF4E13141600021BA
:1022400081600C22C160C0E904128161C161FFF7A5
:102250006BFE002803D0BDE81040FEF73BBC10BD6C
:1022600000380140DC000020FEE7FEE770477047C1
:10227000FFF792B830B593B028216846FDF76BFFA1
:1022800014210AA8FDF767FF002501200F9510957E
:102290001195010412958DE8230004904FF4E0108D
:1022A000CDE90810022407946846FFF7B1FA08B197
:1022B00072B6FEE70AA90F2081E831004FF4806072
:1022C000CDE90D0502210AA8FFF7C6F908B172B6DB
:1022D000FEE74FF4004011900F940FA8FFF746F966
:1022E000002801D072B6FEE713B030BD7047000081
:1022F000F0B50268194B1A4C1A4D4FF080479842BE
:1023000005D0B84203D0A04201D0A84203D122F0A8
:1023100070064A683243984205D0B84203D0A042C2
:1023200001D0A84203D122F44074CA6822434C6908
:1023300022F08002224302608A68C2620A688262D6
:10234000984201D109690163012141610169C9070D
:1023500003D0016921F001010161F0BD002C0140B1
:10236000000400400008004010B501F01F030121E7
:10237000046A99408C430462016A9A4011430162E5
:1023800010BD10B5846842EA032224F47F440A4356
:102390002243826010BD826822F070020A4342F03C
:1023A000070181607047000030B5036A026A22F0BD
:1023B000010202624268846924F073050C682C43B0
:1023C00023F002058B682B430A4DA8420BD123F062
:1023D0000805CB6822F440722B434D6923F00403B7
:1023E00015438A692A4342608461496841630362F4
:1023F00030BD0000002C014030B5026A036A23F0B2
:1024000010030362436884690D6824F4E64444EAD7
:1024100005248D6822F0200242EA05120B4DA842E5
:102420000ED1CD6822F0800242EA05124D6923F4F4
:10243000406343EA85038D6922F0400243EA850345
:102440004360846149688163026230BD002C0140B1
:1024500030B5036A026A22F4807202624268C4697B
:1024600023F4007324F073050C682C438D6843EA51
:1024700005230C4DA8420ED1CD6823F4006343EA36
:1024800005234D6922F4405242EA05128D6923F476
:10249000806342EA05124260C4614968C163036215
:1024A00030BD0000002C014030B5046A026A22F4FD
:1024B000805202624268C3690D6823F4E64343EA2E
:1024C00005238D6824F4005444EA0534064DA842DF
:1024D00004D14D6922F4804242EA85124260C36110
:1024E00049680164046230BD002C014010B5036AE4
:1024F000046A24F001040462846924F0F00444EACC
:10250000021423F00A020A438461026210BD10B56E
:10251000036A046A24F010040462846923F0A003AF
:1025200024F4704444EA023243EA011182610162F8
:1025300010BD01680C3151E8002F22F4907241E87F
:102540000023002BF5D10168143151E8002F22F04F
:10255000010241E80023002BF5D1016B012909D1CB
:1025600001680C3151E8002F22F0100241E80023ED
:10257000002BF5D1202180F8421000210163704723
:1025800070B5044600680169E26821F440511143C6
:1025900001612169A0680843616908432168CA682C
:1025A00041F20C639A430243CA6020684169A26900
:1025B00021F44071114341611E492068884202D1D3
:1025C000FFF7F0F801E0FFF7DDF800EBC00101EBE9
:1025D0000012606864218000B2FBF0F3B3FBF1F3FA
:1025E0006FF018067343B2FBF0F5B2FBF0F605EBA3
:1025F0008305322303EB0515B5FBF1F5B6FBF1F6C8
:1026000005F0F00505EB0615B2FBF0F6B2FBF0F0B5
:10261000B0FBF1F06FF01802504306EB800003EBC3
:102620000010B0FBF1F0216800F00F002844886032
:1026300070BD0000003801402DE9F8439846174668
:102640000D460446089E24E0701C22D0FEF79EFE34
:10265000A0EB0800B0421AD8CEB12068C168490783
:1026600017D5802D15D0402D13D00168C943090717
:102670000FD401680025406800902046FFF759FFFD
:102680000820606484F840500120BDE8F8830320EE
:10269000FBE72068006835EA000004D00020B8425B
:1026A000D2D00020F1E70120F9E7FEE70FB4054B97
:1026B00010B503A9044A029800F0EAF810BC5DF8CE
:1026C00014FB0000992F00081C0000200907090EC8
:1026D000002804DB00F1E02080F80014704700F0CF
:1026E0000F0000F1E02080F8141D704702E008C8D8
:1026F000121F08C1002AFAD170477047002001E07C
:1027000001C1121F002AFBD1704700002DE9FF5FB5
:1027100082B00021DDE90430020DDDF840B0034352
:1027200018D044F61050A2F2FF324243151411980B
:1027300001281FD0A5EB0B00401C5FEA000A4FF0F8
:1027400000064E4FDFF83891B046504615D5CAF115
:10275000000413E0119801244AA3012801D16FEA73
:102760000B010298119AC0E90031C0E9024206B09B
:10277000BDE8F09FCBF10000DFE704460021404AAE
:10278000491842EB0450CDE9001012E0E00707D0F1
:1027900032463B4640464946FDF701FF80468946A2
:1027A00032463B4610461946FDF7F9FE06460F46EF
:1027B0006410002CEAD1DDE90401DDE90023BAF15F
:1027C000000F06DAFDF7EBFE42464B46FDF7E7FE4B
:1027D00005E0FDF756FF42464B46FDF752FF044623
:1027E0000E460022284BFDF7D3FF03D84FF0FF30F1
:1027F000014607E00022254B20463146FDF728FE22
:10280000FDF7AEFF102409E0002C0ADB0A220023AA
:10281000FDF7B6FD039B30321A55641E50EA0102E3
:10282000F2D1641C039AC4F111031444119A012AD1
:1028300003D0012208430DD10AE0084304D0002050
:102840004FF0110B119072E7A3EB0B056D1E0DE01D
:102850005B4504DD4FF0000205F1010504E003DAF9
:102860004FF00002A5F10105002AECD00298119961
:10287000C0E90231C0E9004579E7000000001440DA
:102880000000F03F300000000000F0430000E03F97
:102890002DE9FF4F95B09A46884606460025EEE1A1
:1028A000252877D100242746F94A0121039400E026
:1028B000044316F8013F203B01FA03F01042F7D120
:1028C00030782A2811D06FF02F033078A0F1300231
:1028D000092A16D8039A44F0020402EB820203EBA1
:1028E00042021044761C0390EFE758F8042B039241
:1028F000002A03DA504244F40054039044F00204E6
:10290000761C30782E2816D116F8010F44F00404F6
:102910002A280DD06FF02F023078A0F13003092B58
:1029200009D807EB870302EB4303C718761CF3E7CC
:1029300058F8047B761C30786C280FD006DC4C28C5
:1029400017D068280DD06A2814D104E0742810D05C
:102950007A280FD10DE044F400140AE044F4801406
:1029600001E044F440147278824202D104F58014EC
:10297000761C761C307866280BD013DC582877D06C
:1029800009DC002875D04528F6D04628F4D0472821
:102990001AD193E118E0632835D0642879D06528EE
:1029A00012D18BE1702873D008DC6728F1D0692838
:1029B0006FD06E280DD06F2806D1ACE073282CD0D4
:1029C000752874D0782853D05246179990476D1CBB
:1029D00054E1C4F30250022809D003280DD0D8F8DE
:1029E000001004280DD00D6008F1040846E1D8F865
:1029F0000010EA17C1E90052F6E7D8F800100D8080
:102A0000F2E70D70F0E718F8041B8DF800100020B5
:102A10008DF80100EB46012003E058F804BB4FF0AD
:102A2000FF3061074FF0000102D40DE009F1010110
:102A30008946B9420FDA8145F8DB1BF809100029F5
:102A4000F4D108E009F1010189468142FADB1BF863
:102A500009100029F6D103985346A0EB0907214637
:102A60003846179A00F080FA284400EB090507E081
:102A700044E008E10DE01BF8010B5246179990471E
:102A8000B9F10109F7D2534621463846179AF2E0C8
:102A900039E00A21C4F302524FF0000B0091022AE0
:102AA00006D058F8040BC117032A09D00AE023E026
:102AB00008F1070020F00702F2E80201904605E065
:102AC00000B2C117042A01D140B2C117002906DAA9
:102AD0000A460021404261EB02012D2202E022055C
:102AE00004D52B228DF80420012203E0E20701D057
:102AF0002022F7E7914657E00A2100E010214FF02D
:102B0000000B00910BE010214FF0000B44F0040487
:102B10000827009103E008204FF0000B0090C4F359
:102B20000252022A05D058F8040B0021032A08D0CB
:102B300008E008F1070020F00702F2E802019046E1
:102B400003E080B2042A00D1C0B24FF0000922078E
:102B50002AD53278702A07D0DDF800C08CF0100C2E
:102B60005CEA0B0C05D00EE040228DF80420012217
:102B700008E050EA010306D030238DF804308DF8C8
:102B8000052002229146009B83F0080353EA0B03C1
:102B90000AD150EA010201D1620705D530228DF831
:102BA00004204FF001097F1E3278582A04D039A240
:102BB0000C920CAA02920BE03BA2F9E75B46009A4A
:102BC000FDF7DEFB0C9B9B5C029A521E0292137077
:102BD00050EA0102F2D1029804A9081A00F1200B70
:102BE000600702D524F4803400E001275F4502DD50
:102BF000A7EB0B0000E0002000EB0B010090039816
:102C00004944401A0390E00306D453462146179ADC
:102C1000039800F0A9F90544002706E001A85246F0
:102C2000C05D179990476D1C7F1C4F45F6DBE00394
:102C30000CD553462146179A039800F095F90544A0
:102C400004E030205246179990476D1C0099481EA9
:102C500000900029F5DC08E00298029952460078BD
:102C6000491C0291179990476D1CBBF10001ABF113
:102C7000010BF1DC5BE100F065F90544761C30786E
:102C800000287FF40DAE19B02846BDE8F08F000093
:102C90000928010030313233343536373839616232
:102CA00063646566000000003031323334353637F6
:102CB000383941424344454600000000600700D4D3
:102CC000062708F1070020F00700F0E802238046FD
:102CD00003F0004C5FEA0C0001D097A009E020054A
:102CE00001D596A005E0E00701D095A001E0AFF284
:102CF0004C001390307823F0004365280CD006DC9C
:102D0000452809D046281DD047287FD13BE06628BA
:102D100018D067287AD136E00021112F01DB11206D
:102D200000E0781CCDE9000104A90CA8FFF7EEFC37
:102D3000DDE90D010C9A4FF0000B07F1010910922B
:102D400000914EE04FF000400097CDE9011004A93A
:102D50000CA8FFF7DBFCDDE90D020C9B0F994FF08F
:102D6000000B91461093009211B9791C00EB0109F8
:102D7000B7EB090003D4C0F1FF3B07F10109A9EB50
:102D80000700019042E0012F00DA01270021112FF6
:102D900001DD112000E03846CDE9000104A90CA8AE
:102DA000FFF7B4FCDDE90D010C9A00914FF0000B28
:102DB000B946109221070FD4009A4A4503DA91468A
:102DC00001E0A9F10109B9F1010F05DD109AA9F19E
:102DD0000101515C3029F4D0B84202DA10F1040F3D
:102DE00003DA0121CDE9011010E0002803DC83445F
:102DF000A9EB000102E0411C494500DD8946A0EB3A
:102E00000B00401C01904FF000400290200705D4B9
:102E10000198484502DB4FF0FF30019000208DF80B
:102E20004B0002980DF14B07B0F1004F25D0022066
:102E30000C902B200D90029800280CDA4042029052
:102E40002D200D9007E00A210298FDF783FA30311A
:102E5000029007F8011D0C99481E0C900029F2DC25
:102E600002980028EFD1791E0D980870307800F094
:102E7000200040F0450007F8020D11A8C01BC01D3E
:102E800002901398007800B1012000EB090101982D
:102E900001EBE071029801440398401A401E039030
:102EA000E00306D453462146179A039800F05CF8D5
:102EB00005441398007818B15246179990476D1C35
:102EC000E00323D553462146179A039800F04CF8A7
:102ED00005441BE0BBF1000F07DB0098584504DDFB
:102EE0001098179910F80B0001E0179930205246FE
:102EF000904701980BF1010B401E05F1010501906F
:102F000004D12E205246179990476D1CB9F100014B
:102F1000A9F10109DEDC05E017F8010B524617990B
:102F200090476D1C0299481E02900029F4DC53461C
:102F30002146179A03989EE62D0000002B00000002
:102F4000200000002DE9F041044600251E461746EA
:102F5000880404D405E039462020B0476D1C641E67
:102F6000F9D52846BDE8F0812DE9F0410446002559
:102F70001E469046C80301D5302700E0202788046C
:102F800004D505E041463846B0476D1C641EF9D5AE
:102F90002846BDE8F081000013B54FF0FF33012251
:102FA00069460248FFF72AF800981CBDDC000020A3
:102FB0001FB5FEF7F9F9FFF75DF9FFF7C7F8FFF75F
:102FC000AFF8FFF76DF8FFF733F9FFF7DDF8324898
:102FD000FDF782FD032231492F48FDF73FFF002115
:102FE0002F48FEF753FF04212D48FEF74FFF2D4DCC
:102FF0002846FDF735FD2A4C216848632846FDF731
:103000002FFD216888634FF4006BA246234DA888EA
:10301000642808D9FDF772F901462348FDF730F915
:10302000291F086003E01D482049001F01602C880B
:103030006D88A4F26B714FF49570814200D85C46A4
:10304000A5F26B71814200D85D462846FDF7EAFC87
:1030500081462046FDF7E6FC8046FDF768F9064606
:103060000F464846FDF763F98DE8C3002A4621461E
:103070000FA0FFF71BFB4846FDF7F2FC0446404655
:10308000FDF7EEFCDAF800205463DAF800108863EC
:103090003220FEF779F8B9E7200000200400002074
:1030A000940000200000B44200909945333353400F
:1030B00025752C25752C252E32662C252E32660A78
:1030C00000000000010202030405060708090A0BBC
:1030D0000C0D0E0F1010010202030405060708096B
:1030E0000A0B0C0D0E0F1010000000000000000075
:1030F000010203040607080900000000010203049E
:10310000203100080000002020000000EC2600080C
:10311000403100082000002008050000FC260008BF
:1031200033335340000000000000000001000000A5
:10313000100000000000000000127A0000000000F3
:04000005080000ED02
:00000001FF
